:020000040800F2
:100000004020002029020008331C00080D1B0008B6
:10001000311C000887070008852100080000000047
:100020000000000000000000000000009101000836
:100030008907000800000000D5010008CD1E000857
:10004000430200084302000843020008430200087C
:10005000430200084302000843020008430200086C
:10006000430200084302000843020008430200085C
:10007000430200084302000843020008430200084C
:10008000430200084302000843020008430200083C
:10009000430200084302000843020008430200082C
:1000A000430200084302000843020008430200081C
:1000B000430200084302000843020008430200080C
:1000C00043020008430200084302000843020008FC
:1000D0004302000843020008792100084302000897
:1000E00043020008351C00084302000800F002F833
:1000F00000F03FF80AA090E8000C82448344AAF183
:100100000107DA4501D100F034F8AFF2090EBAE880
:100110000F0013F0010F18BFFB1A43F0010318473B
:10012000F838000018390000103A24BF78C878C1A8
:10013000FAD8520724BF30C830C144BF04680C60ED
:10014000704700000023002400250026103A28BF35
:1001500078C1FBD8520728BF30C148BF0B60704739
:10016000642900F0BD80002070471FB51FBD10B589
:1001700010BD00F0CEFA1146FFF7F7FF02F01AF8B3
:1001800000F0ECFA03B4FFF7F2FF03BC00F0F4FA5E
:10019000224B19680868B0E8F00F80F30988BFF3B4
:1001A0006F8F4FF0000080F311884EF00D0E7047F6
:1001B0000000000006480068006880F3088862B606
:1001C00061B6BFF34F8FBFF36F8F00DF00BF00BF7B
:1001D00008ED00E0EFF30980BFF36F8F0F4B1A6853
:1001E00020E9F00F106008B54FF0500080F311883F
:1001F000BFF34F8FBFF36F8F02F0C2FE4FF00000CE
:1002000080F31188BDE8084019680868B0E8F00F6D
:1002100080F30988BFF36F8F704700BF1C00002078
:10022000EFF3058070470000094880470948004700
:10023000FEE7FEE7FEE7FEE7FEE7FEE7FEE7FEE796
:10024000FEE7FEE704480549054A064B70470000F3
:10025000651F0008ED000008401A00204020002023
:10026000401C0020401C00200FB41CB5074B06AA00
:100270007B4469460090059800F0DFF9002069464C
:1002800000F0EEF91CBC5DF814FB0000ED0300006B
:1002900070B5044685690068C10601D5302600E0C6
:1002A0002026C00707D070BDD4E901213046904711
:1002B000206A401C20626D1EF6D570BD70B50446E4
:1002C00085690078C00707D170BDD4E901212020DD
:1002D0009047206A401C20626D1EF6D570BD00005C
:1002E0002DE9F0410646002410687529314616A50F
:1002F00010D0AFF30080002802DA404213A507E0D7
:1003000031688A0701D512A502E0490704D511A575
:10031000012401E0AFF3008000210A2206F1240746
:1003200009E0B0FBF2FCB0FBF2F302FB1C00303042
:1003300078541846491C0028F3D123462A463046F3
:10034000BDE8F04100F01BB9000000002D000000E6
:100350002B000000200000002DE9F05F89460446D4
:100360004FF0000ADFF824B1FB44C0F820A020467B
:10037000E168884700287DD0252806D0D4E90121EE
:100380009047206A401C2062F1E700255F46204626
:10039000E16888472028064607DB312E05D2B819C8
:1003A00010F8200C08B10543F1E7A80701D525F0A6
:1003B0000405C4F81CA00027C4F818A02A2E09D0F0
:1003C000304601F0F0FE38B304EB8708303EC8F841
:1003D000186019E059F8041B204604EB870291616C
:1003E000E1688847012F064618D1E069002820DA25
:1003F00025F020051DE0D8F8180000EB800006EB82
:1004000040003038C8F818002046E16888470646A2
:1004100001F0C9FE0028EED1012F0AD02E2E08D1FE
:100420002046E16888477F1C0646022F45F02005DC
:10043000C4DBA069002803DA404245F00105A06151
:10044000E80701D025F01005A6B1A6F14100192852
:1004500002D8203645F400654A46314620462560DC
:100460004D46FFF77DFE60B1012807D0ED1D25F058
:10047000070000E007E000F1080978E705F104094A
:1004800075E730467AE7206ABDE8F09F80360000C5
:10049000032A40F2308010F0030C00F0158011F8B0
:1004A000013BBCF1020F624498BF11F801CB00F888
:1004B000013B38BF11F8013BA2F1040298BF00F8DC
:1004C00001CB38BF00F8013B11F0030300F0CD80F1
:1004D000083AC0F0088051F8043B083A51F804CBC0
:1004E000A0E80810F5E7121D5CBF51F8043B40F886
:1004F000043BAFF30080D20724BF11F8013B11F891
:1005000001CB48BF11F8012B24BF00F8013B00F8D4
:1005100001CB48BF00F8012B704702F0FF0343EA0C
:10052000032242EA024200F0D4B84FF0000200B5C4
:10053000134694469646203922BFA0E80C50A0E806
:100540000C50B1F12001BFF4F7AF090728BFA0E8B4
:100550000C5048BF0CC05DF804EB890028BF40F880
:10056000042B08BF704748BF20F8022B11F0804FC2
:1005700018BF00F8012B70477047704770472DE98E
:10058000F0470D4699469246044600F1240801685A
:10059000880604D5E06921F01001216000E0012007
:1005A000A84201DD471B00E00027A1697A1902EB90
:1005B0000900081AA0612078C00602D42046FFF77F
:1005C00067FE002608E0D4E901211AF806009047EA
:1005D000206A401C761C20624E45F4DB2078C00661
:1005E0000AD52046FFF754FE06E0D4E90121302069
:1005F0009047206A401C2062381EA7F10107F4DCF6
:1006000007E0D4E9012118F805009047206A401C52
:100610002062281EA5F10105F3DC2046FFF74EFEFF
:100620002078000602D50220BDE8F0870120FBE714
:1006300001694A1C02610878704700B58FB0CDE9A6
:1006400001310021059105497944CDE90310114696
:100650006846FFF781FE0FB000BD0000E5FFFFFF19
:100660000A6802F8010B0A60704710B5203AC0F022
:100670000B80B1E81850203AA0E81850B1E81850A3
:10068000A0E81850BFF4F5AF5FEA027C24BFB1E8E0
:100690001850A0E8185044BF18C918C0BDE8104051
:1006A0005FEA827C24BF51F8043B40F8043B08BF5A
:1006B0007047D20728BF31F8023B48BF11F8012B21
:1006C00028BF20F8023B48BF00F8012B70474FF0CD
:1006D00000020429C0F0128010F0030C3FF427AF91
:1006E000CCF1040CBCF1020F18BF00F8012BA8BF1D
:1006F00020F8022BA1EB0C01FFF719BF5FEAC17CC8
:1007000024BF00F8012B00F8012B48BF00F8012B93
:100710007047754600F02CF8AE4605006946534612
:1007200020F00700854618B020B5FFF78BFDBDE827
:1007300020404FF000064FF000074FF000084FF048
:10074000000B21F00701AC46ACE8C009ACE8C009D9
:10075000ACE8C009ACE8C0098D46704710B5044646
:10076000AFF300802046BDE81040FFF70BBD00004E
:1007700000487047E019002001491820ABBEFEE791
:10078000260002007047FEE7704710B590F8211070
:100790000022022905D00421816380F82020012055
:1007A00010BD01680B6823F00E030B6001680B6835
:1007B00023F001030B6090F84030C46B012101FA73
:1007C00003F3636080F8211080F82020104610BDEC
:1007D00010B590F821100024022903D00421816370
:1007E00001243DE001680A6822F00E020A600168F7
:1007F0000A6822F001020A601A4A0168914201D196
:10080000012121E0174A1432914201D110211BE04D
:10081000144A2832914201D1891515E0114A3C321F
:10082000914201D189140FE00E4A5032914202D117
:100830004FF4803108E00B4A6432914202D14FF408
:10084000801101E04FF08071064A083A51600121A1
:1008500080F82110002180F82010416B01B18847F9
:10086000204610BD080002402DE9F84FDFF8B8918E
:10087000002409F1040A0AF1040B23460F270BF1A7
:10088000040EC9E00125A5402A40AA427DD1674E49
:10089000D1F804C0ACEB0608B44532D014DCBCF18E
:1008A000030F3AD009DCBCF1000F2AD0BCF1010FD4
:1008B0001CD0BCF1020F31D11DE0BCF1110F17D0DB
:1008C000BCF1120F2AD119E0B8F5881F19D006DC47
:1008D000B8F5803F15D0B8F5801F1FD111E0B8F5ED
:1008E000001F0ED0B8F5041F18D10AE0CB6815E040
:1008F000CB681B1D12E0CB6808330FE0CB680C33CC
:100900000CE08B682BB1012B4FF0080303D045613D
:1009100004E0042302E0056100E00023FF2A01D87F
:10092000064601E000F104064FEA840501D9A5F16D
:100930002005D6F8008007FA05FC28EA0C0803FA1F
:1009400005F548EA0508C6F800804D68ED0062D557
:10095000374DAE6946F00106AE61AD6924F003067D
:1009600005F001050095334D06EB050CDCF8085049
:10097000A607360F07FA06F825EA0805DFF8B8805B
:10098000404503D14FF0000817E044E0DFF8AC80A9
:10099000404502D14FF001080FE0DFF8A480404548
:1009A00002D14FF0020808E0DFF89880404502D1FC
:1009B0004FF0030801E04FF0040808FA06F848EA8F
:1009C0000508CCF808804D68D9F80060ED034D4665
:1009D00001D5164300E096432E604D68DAF80060BA
:1009E000AD03554601D5164300E096432E604D6891
:1009F000DBF80060ED025D4601D5164300E096434A
:100A00002E604D68DEF80060AD02754601D51643D4
:100A100000E096432E60641C0D682A46E5407FF492
:100A200031AFBDE8F88F0000000401400000111054
:100A3000001002400000014000080140000C01408D
:100A400000100140001401400AB10161704709041F
:100A5000FBE7000001488068704700000C000020A0
:100A60000248816802781144816070470C000020C0
:100A7000074810B5016841F010010160032000F043
:100A80007BF80F2000F006F800F024F8002010BDDD
:100A90000020024070B50D4D04464FF47A7128785D
:100AA000B1FBF0F00A490968B1FBF0F000F043FE39
:100AB00048B9102C07D200222146501E00F03CF805
:100AC00000206C6070BD012070BD00000C00002093
:100AD000180000200F4808B5816941F001018161CB
:100AE000816901F001010091C16941F08051C1614A
:100AF000C069002200F0805000900F21901E00F08D
:100B00001BF80548416821F0E06141F00071416047
:100B100008BD00000010024000000140002809DB71
:100B200000F01F02012191404009800000F1E02007
:100B3000C0F8001170470000F0B40E4B1B680C4663
:100B4000C3F30223C3F10705042D00D90425191DA1
:100B5000072901D2002300E0DB1E012606FA05F179
:100B6000491E214099409E40761E16403143F0BCFC
:100B700001F009BB0CED00E0064900F0070208682F
:100B80004FF6FF03184040EA0220034A1043086072
:100B9000704700000CED00E00000FA05014901205B
:100BA0000862704700000E4210B529A401461DCC12
:100BB00086B08DE81D002AA02A4C00680490002011
:100BC000012923D002293AD010291DD16168226859
:100BD000D20119D5C1F38342C9031DF8020009D51A
:100BE000616804AAC1F34041515C1F4AB2FBF1F1B4
:100BF000484301E01D4948436168490204D440006C
:100C00005FF00301B0FBF1F006B010BD226AC2F341
:100C10000121012903D1920701D5C803F4E7022974
:100C200005D1626A920702D549F64040ECE70329F4
:100C3000EAD121688903E7D54FF22440E4E700F0C8
:100C400033F96168C1F38131491C4900DAE70000DA
:100C500002030405060708090A0B0C0D0E0F1010FD
:100C6000010200000010024000127A0000093D005D
:100C70002DE9F84305460078354CC00754D0E069AB
:100C80000026C00008D4E06940F08050E061E069CF
:100C9000012600F0805000902E480168C90512D44A
:100CA0000168804641F480710160FFF7D3FE07467A
:100CB00005E000BFFFF7CEFEC01B642823D8D8F89C
:100CC0000000C005F6D5206A10F4407021D0A98834
:100CD00001F4407181421CD0206A1F49012220F496
:100CE00040700A6000220A602062C00711D0FFF73E
:100CF000B1FE074641F2883808E000BFFFF7AAFEC0
:100D0000C11B414502D90320BDE8F883206A800752
:100D1000F4D5206A696820F44070084320621EB14F
:100D2000E06920F08050E0612878800705D5606890
:100D3000A96820F44040084360602878C00605D5C3
:100D40006068E96820F48000084360600020DBE709
:100D50000010024000700040400442422DE9F0477C
:100D60000F46050061D0434E306800F00700B842DE
:100D700009D2306820F0070038433060306800F056
:100D80000700B84251D128683B4C810712D5400773
:100D900003D5606840F4E06060602878000703D500
:100DA000606840F4605060606068A96820F0F000FE
:100DB000084360602878C00728D06868012810D0F0
:100DC0002168022810D0890700292EDA616821F0F5
:100DD000030101436160FFF73DFE804641F288391F
:100DE0000DE021688903EFE78901EDE7FFF732FEA7
:100DF000A0EB0801494502D90320BDE8F0876068EF
:100E0000696800F00C00B0EB810FEFD1306800F0A2
:100E10000700B8420BD9306820F007003843306033
:100E2000306800F00700B84201D00120E5E72878DB
:100E3000400705D56068E96820F4E0600843606019
:100E40002878000706D56068296920F4605040EAD8
:100E5000C100606000F038F86168084AC1F303110E
:100E6000515CC8400649086006480068FFF712FE5A
:100E70000020C2E70020024000100240D4390008E0
:100E80001800002010000020044805490068496847
:100E9000044AC1F30221515CC84070471800002089
:100EA00000100240E4390008044805490068496818
:100EB000044AC1F3C221515CC840704718000020A9
:100EC00000100240E439000812A185B00FC98DE876
:100ED0000F0014A0144A006804905168134801F0F0
:100EE0000C03042B10D0082B0ED1C1F38343C9038C
:100EF0001DF803000AD5516804AAC1F34041515CB2
:100F00000A4A5043B0FBF1F005B070470849484326
:100F1000FAE7000002030405060708090A0B0C0D96
:100F20000E0F1010010200000010024000127A00A3
:100F300000093D002DE9F84F040070D02078C04D25
:100F4000C00749D06868C0F38100012807D06868ED
:100F5000C0F38100022809D16868C00306D528685B
:100F6000800339D560680028E7D035E06068B0F5C7
:100F7000803F0BD010B1B0F5A02F11D0286820F41D
:100F800080302860286820F4802002E0286840F43F
:100F900080302860606890B1FFF75CFD06460AE08B
:100FA000286840F480202860F0E700BFFFF752FD7A
:100FB000801B642873D828688003F7D50CE0FFF7FE
:100FC00049FD064605E000BFFFF744FD801B64288D
:100FD000F0D828688003F7D420789A4E80074FF025
:100FE00001094FF0000839D5686810F00C0F07D0E0
:100FF0006868C0F38100022809D16868C00306D47C
:101000002868800714D52069012808D110E02069DC
:10101000B0B1C6F80090FFF71DFD074605E00AE1F4
:10102000FFF718FDC01B0228C4D828688007F7D531
:101030002868616920F0F80040EAC10028600DE0EE
:10104000C6F80080FFF706FD074604E0FFF702FD43
:10105000C01B022823D828688007F7D4207800070F
:101060002CD57948A169D9B1C0F80090FFF7F2FCFE
:10107000074604E0FFF7EEFCC01B02280FD8686AA1
:101080008007F7D571484FF4FA510068B0FBF1F0D2
:10109000009000BF0098411E0091FAD20EE080E05F
:1010A000C0F80080FFF7D6FC074604E0FFF7D2FC4B
:1010B000C01B022875D8686A8007F7D420784007DB
:1010C00060D5E8690027C00008D4E86940F0805086
:1010D000E861E869012700F0805000905C480168F1
:1010E000C90513D40168834641F480710160FFF79C
:1010F000B1FC824606E000BFFFF7ACFCA0EB0A00A3
:1011000064284ED8DBF80000C005F5D5E06801285A
:101110000AD008B1052813D0286A20F001002862FF
:10112000286A20F0040002E0286A40F001002862EA
:10113000E06841F2883B98B1FFF78CFC82460BE0F7
:10114000286A40F004002862EEE700BFFFF782FC47
:10115000A0EB0A0159455AD8286A8007F6D50CE059
:10116000FFF778FC824605E0FFF774FCA0EB0A016C
:1011700059454CD8286A8007F6D41FB1E86920F099
:101180008050E861E06988B36968C1F38101022990
:1011900044D00228C6F8608004D0FFF75BFC044608
:1011A00038E034E0FFF756FC074604E0FFF752FC56
:1011B000C01B02282BD828688001F7D4206AB0F51C
:1011C000803F05D16868A16820F40030084368605A
:1011D000D4E908010843696821F474110843686080
:1011E000C6F86090FFF736FC044606E025E000BF35
:1011F000FFF730FC001B022809D828688001F7D5CA
:101200001BE000BFFFF726FC001B022802D90320C9
:10121000BDE8F88F28688001F4D40EE00128F7D0EB
:101220006868226A00F48031914204D1616A00F456
:101230007010884201D00120EAE70020E8E70000B2
:101240000010024000004242800442421800002088
:1012500000700040024850F8210080B27047000042
:10126000006C0040024800EB810091B201607047C1
:10127000006C00400EB5012280210748FFF7E4FB17
:1012800006A24FF4967307CA8DE807000A22694642
:10129000054800F0E1FB0EBD0008014064656E20CA
:1012A00073616E67210A0000A800002010B5044693
:1012B0000068016889070AD54068800707D520467D
:1012C000FFF7D8FF2068416821F00201416003491F
:1012D0004FF4003008600120607410BD1404014018
:1012E0002DE9F04791460C465FEA00084AD084B3E6
:1012F000D8F800004068400744D4404600F048FD5C
:101300004FF461620546B0FBF2F1B0FBF2F302FB71
:1013100013503C23B0FBF3F0B5FBF2F6607002FB18
:101320001650B0FBF3F203FB1200A070182931D362
:101330001820B1FBF0F7B1FBF0F200FB12102070A7
:10134000404600F01EFD411C04D0A84202D9461BB5
:1013500002E017E04FF0FF36A7EB071000EB40006C
:10136000C0EB001005EBC0152946404600F05FFDBC
:1013700040B9701C01D0711900E03146404600F0C0
:1013800042FD10B10120BDE8F0873946404600F02B
:101390006BFC00E02170B9F1000F0BD0207800F059
:1013A00058FC2070607800F054FC6070A07800F069
:1013B00050FCA0700020E6E770B5040003D0607C0C
:1013C000002610B105E0012070BD2674204600F013
:1013D00043F802206074204600F090F9042578BBA1
:1013E000204600F098FC58BB2068416821F00701B6
:1013F0004160A06820B11748016821F00101016037
:101400001448001F0168A26821F460711143016053
:101410006068411C04D10120FFF7C6FB80B1401E6B
:1014200021688A6822F00F0242EA10428A6021682D
:10143000CA6860F30F02CA60204600F087FC08B15A
:101440006574C0E7E67301206073A07360740020C8
:1014500070BD0000306C004008B500680D4988423E
:1014600017D1FFF79BFB0C48C16941F00061C161D6
:10147000C0690A4900F00060009001200860002265
:1014800005212920FFF758FBBDE808402920FFF778
:1014900045BB08BD00280040001002403C04424209
:1014A0002DE9F8434FF0000617460D46040000965C
:1014B0000FD075B1207C01280ED04FF0010984F8BF
:1014C000109002206074002269462046FFF708FF52
:1014D00020B10120BDE8F8830220FBE79DF8000061
:1014E0004FF4616148439DF80110C1EB011100EB1D
:1014F00081009DF8021000EB01082878E7B100F0A8
:101500009FFB4FF4616100FB01F7687800F098FBE6
:10151000C0EB001007EB8007A87800F091FB3918AA
:10152000414501D217480144204600F06CFC70B1DF
:10153000042060742674CCE74FF4616148436978F5
:10154000C1EB011100EB8100A9780144E8E72068B4
:10155000416821F0020141602068016841F0020108
:1015600001600948016841F4003101600648083013
:10157000016841F40031016084F811902674002064
:10158000A8E7000080510100000401402DE9F0416E
:101590000D4604003BD0C5B3207C01283AD04FF063
:1015A000010884F8108002206074E87872B300F0BB
:1015B00047FBE073687800F043FB6073A87800F0A5
:1015C0003FFBA073C2B2617BE07B00F0F1FB2073B4
:1015D0002870204600F0DCFB4FF46161B0FBF1F1B4
:1015E000002518292DD91822B1FBF2F1A1EB011128
:1015F00001EB4101C1EB011100EBC1163146204660
:1016000000F015FC0427C8B90BE000E004E001205D
:10161000BDE8F0810220FBE7E07368786073A8788A
:10162000CFE7204600F0ADFB411C0AD0B04208D203
:1016300006490144204600F0E6FB10B167742574AA
:10164000E5E784F8118025740020E1E7805101006E
:101650002DE9F0410D46040024D01DB3207C012863
:1016600023D04FF0010884F810800220607428789D
:10167000EAB100F0E5FA4FF4616100FB01F6687829
:1016800000F0DEFAC0EB001006EB8006A87800F050
:10169000D7FA35182946204600F0C9FB0026042752
:1016A00010BB0FE00120BDE8F0810220FBE74FF402
:1016B000616148436978C1EB011100EB8100A978B1
:1016C0004518E7E72068416821F0050141602046A0
:1016D00000F057FB411C0AD0A84208D20649014439
:1016E000204600F090FB10B167742674DAE784F8A6
:1016F000118026740020D6E78051010070B50400E7
:101700000AD02068416821F008014160FFF7A2F982
:1017100005464FF47A7608E0012070BDFFF79AF98C
:10172000401BB04201D9032070BD2068406800070B
:10173000F4D5002070BD10B5401EB0F1807F01D3FC
:10174000012010BD4FF0E02460610F21601700F010
:101750001AFD0020A06107202061002010BD704705
:1017600070470000F8B5026804461068D1685369F4
:1017700010F00F0F4FF0000553D003F0010601F4F5
:10178000907737435FD0C20705D0CA0503D5226CD6
:1017900042F001022264420705D5DA0703D0226C29
:1017A00042F002022264820705D5DA0703D0226CD8
:1017B00042F004022264020707D501F020023243FE
:1017C00003D0226C42F008022264226C002A34D03A
:1017D000800604D5880602D5204600F0E4FB206888
:1017E0004069216CC0F38010090700D430B3204653
:1017F00000F0C1FB2068416949061BD5416921F011
:1018000040014161A06BA8B158494163A06BFEF74C
:10181000DFFF002811D0A06B416B01B0BDE8F040A4
:10182000084783060FD58B060DD52046BDE8F84046
:1018300000F0B9BB2046FFF793FFF8BD2046FFF745
:101840008FFF2564F8BD266B2023012E52D1C606DA
:1018500050D5CE064ED510685068009050694006AD
:101860002AD5A16B086840680004000CEAD0A68D58
:101870008642E7D9E0858869202818D0D06820F40E
:101880008070D0602068416921F0010141612068C9
:10189000416921F04001416184F83E3025632068B0
:1018A000C16821F01001C160A06BFEF76EFFA08D32
:1018B000E18D401A81B219E0A08DE18D401A81B20C
:1018C000E08D0028BED00029BCD0D06820F49070F4
:1018D000D0602068426922F00102426184F83E3003
:1018E00025632068C26822F01002C2602046FFF71C
:1018F00036FFF8BD05062BD50D0629D594F83D0019
:101900002128F6D1A068B0F5805F01D12069B0B17F
:10191000206A411C2162216800784860E08C401EEA
:101920000004000CE084E4D12068C16821F080014B
:10193000C1602068C16841F04001C160F8BD206A03
:101940000088C0F308005060206A801C2062E5E730
:101950004006F3D54806F1D5D168204621F0400174
:10196000D16084F83D3000F0D0F8F8BD671F000862
:1019700070B5040004D094F83D00002510B106E0D5
:10198000012070BD84F83C50204600F023F824204C
:1019900084F83D002068C16821F40051C1602046F0
:1019A00000F05CFB2068016921F49041016120682E
:1019B000416921F02A0141612068C16841F4005168
:1019C000C1602564202084F83D0084F83E0000209A
:1019D00070BD000030B585B00024009401940294DD
:1019E00003940068184988422BD11848C16941F412
:1019F0000031C161C16901F400310491816941F094
:101A0000040181618069124D00F0040004900420FB
:101A10000090022001900320039069462846FEF7BB
:101A200023FF0820CDE90004694628460294FEF70A
:101A30001BFF002205212620FFF77EF82620FFF756
:101A40006DF805B030BD00000044004000100240B9
:101A500000080140704700002DE9F843044690F863
:101A60003D001F4616460D4620284CD1C5B1BEB1DB
:101A700094F83C00012846D0012084F83C004FF047
:101A80000008C4F84080212084F83D00FEF7E2FF02
:101A9000A6848146E684A068B0F5805F03D004E0A8
:101AA0000120BDE8F883206928B12E465FF00005CB
:101AB00084F83C800EE00026FAE78021204600F002
:101AC00029FBA0B9AEB116F8010B21684860E08C83
:101AD000401EE084E08C4B464FF000020097002847
:101AE000EBD14FF04001204600F014FB30B1032051
:101AF000D7E735F8020BC0F30800E6E7202084F8AA
:101B00003D000020CDE70220CBE77047FEE7000054
:101B100030B585B0002418480094019402940394D1
:101B2000816941F010018161816901F01001049126
:101B3000816941F020018161816901F020010491F6
:101B4000816941F00401816180690C4D00F004005D
:101B50000490002280212846FEF776FF8020009026
:101B60000120CDE901040220039069462846FEF7D2
:101B70007BFE05B030BD00000010024000080140AF
:101B80002DE9FF412948284901604FF0FF314160AC
:101B90004FF480718160FFF70FFC08B172B6FEE769
:101BA00001212248FFF756FB43F2F227B84238D012
:101BB0000B248DF80C403B2500268DF80D508DF838
:101BC0000E60324603A91948FFF742FD08B172B60C
:101BD000FEE705208DF808008DF809000D208DF82E
:101BE0000A0016208DF80B00002202A90F48FFF70B
:101BF000CDFC08B172B6FEE78DF800408DF80150BB
:101C00000F208DF802000022694608480196FFF770
:101C100047FC08B172B6FEE73A4601210348FFF7D8
:101C200021FBBDE8FF810000002800409400002057
:101C3000FEE7FEE70148FFF739BB000094000020F3
:101C4000010901EB810100F00F0000EB4100C0B27F
:101C50007047002102E00A38C0B2491C0A28FAD2B3
:101C6000090740EA116070472DE9F041044600255C
:101C7000C07B627BA37B42E0012A16D0032A14D0EA
:101C8000052A12D0072A10D0082A0ED00A2A0CD012
:101C90000C2A0AD0042A10D0062A0ED0092A0CD009
:101CA0000B2A0AD0022A0DD028E01F2B0CD30C2AB5
:101CB00005D101221346401C20E01E2B04D3012332
:101CC000521C1BE01C2B02D203F1010316E011D1C0
:101CD00083B29E0710D16426B3FBF6F706FB1736D6
:101CE00036B94FF4C876B3FBF6F706FB17331BB9CA
:101CF0001D2303E01D2B01D1032201236D1C8D4206
:101D0000BAD3D1B2E0736173DAB2A27300F050F8C3
:101D10002073BDE8F08170B50446FEF79BFE0546D2
:101D20004FF47A7606E0FEF795FE401BB04201D9EB
:101D3000032070BD206840688006F4D520684168A3
:101D400041F010014160002070BD000070B50446F4
:101D50000068416821F010014160FEF77BFE0546F6
:101D60004FF47A7607E000BFFEF774FE401BB042E6
:101D700001D9032070BD206840688006F4D500209A
:101D800070BD0168086A496A89B241EA004070473B
:101D9000006881698AB2C1698BB2816989B28A425D
:101DA00003D0C06961F31F40704743EA02407047A7
:101DB000F0B56424C1EBC1030927A500072603EB96
:101DC00001130329B3FBF7F100F5FA601144014454
:101DD0000AD2401EB0FBF4F201EB9001B0FBF5F02B
:101DE000891A0844001D08E0B0FBF4F201EB9001F1
:101DF000B0FBF5F0891A0844801CB0FBF6F106FB35
:101E00001100C0B2F0BD70B50D4606460024FFF7C4
:101E100082FF48B93168280C08623168A8B248626C
:101E20003046FFF793FF00B10124204670BD70B526
:101E30000D4606460024FFF76EFF48B93168280CAE
:101E400088613168A8B2C8613046FFF77FFF00B1F2
:101E50000124204670BD00004FF47A74002204492A
:101E60000448FFF73DFA204600F0DEF9F6E70000EF
:101E7000000000209400002008B50C4C4FF496752B
:101E80004FF47A76A07800906378227808A10E4803
:101E9000FEF7EAF90C492B461E22A1F14400FFF798
:101EA000DBFD304600F0C0F9ECE700000000002048
:101EB00074696D653A20253032642E253032642EE7
:101EC000253032640A000000EC00002010B5FEF757
:101ED000C7FD01F0A5FB012803D0BDE8104001F0CB
:101EE000D5B810BD70B594B028216846FEF71DFB2B
:101EF00014210AA8FEF719FB00250F9509200124DB
:101F000010950090119512954FF48030049406942A
:101F1000CDE901050226CDE907604FF4E0100990F4
:101F20006846FFF707F808B172B6FEE70F20CDE963
:101F30000A064FF48060CDE90C5002210AA80E95E4
:101F4000FEF70CFF08B172B6FEE74FF40070CDE962
:101F50000F400FA8FEF78CFE002801D072B6FEE7F6
:101F600014B070BD704710B5406A0021C185C184AE
:101F7000FFF7F6FB10BD0168CA6822F49072CA60D0
:101F800001684A6922F001024A61016B012904D10A
:101F90000168CA6822F01002CA60202180F83E1051
:101FA00000210163704708B590F83E10222901D046
:101FB000022008BD82684FF480539A4201D1016922
:101FC00021B1816A9A421BD04AB10AE00268816A53
:101FD0005268C2F308020A80816A891C08E002691B
:101FE00072B10268526802F07F020A70816A491C6D
:101FF0008162C18D491E0904090CC18503D019E015
:1020000002685268F1E70168CA6822F02002CA60DB
:102010000168CA6822F48072CA6001684A6922F0C5
:1020200001024A61202180F83E10016B012903D092
:10203000FFF710FD002008BD002101630168CA6898
:1020400022F01002CA6001680A68D20602D50A6846
:1020500049680091818DFFF782FBEBE770B504467C
:1020600000680169E26821F440511143016121696E
:10207000A0680843616908432168CA6841F20C639B
:102080009A430243CA6020684169A26921F4407101
:10209000114341611E492068884202D1FEF704FFC6
:1020A00001E0FEF7F1FE00EBC00101EB00126068F9
:1020B00064218000B2FBF0F3B3FBF1F36FF018067C
:1020C0007343B2FBF0F5B2FBF0F605EB8305322368
:1020D00003EB0515B5FBF1F5B6FBF1F605F0F005E0
:1020E00005EB0615B2FBF0F6B2FBF0F0B0FBF1F039
:1020F0006FF01802504306EB800003EB0010B0FBBA
:10210000F1F0216800F00F002844886070BD0000E5
:10211000003801402DE9F041984617460E46044626
:10212000069D1DE0681C1BD02DB1FEF793FCA0EBB3
:102130000800A84214D92068C16821F4D071C16098
:102140002068416921F001014161202084F83D00AF
:1021500084F83E00002084F83C000320BDE8F081B4
:102160002068006836EA000004D00020B842D9D0C8
:102170000020F3E70120F9E70148FFF7F3BA000078
:10218000A8000020FEE70907090E002804DB00F183
:10219000E02080F80014704700F00F0000F1E0200C
:1021A00080F8141D704730380A2801D2012070478A
:1021B00000207047FEF75CFCFFF794FEFFF7A8FCD9
:1021C000FFF7DEFC134812490C2201604FF4165150
:1021D000416000218160C160C0E904128161C16178
:1021E000FFF7C6FB08B172B6FEE700F037F80A4AFF
:1021F00000210A4800F06EF8094C074A002160608F
:102200002432084800F066F8A06000F043F8FEE7CA
:1022100000440040A80000208C390008791E000806
:1022200000000020591E000810B5EFF3058149B9E0
:10223000EFF3108131B908490968022905D1EFF39C
:10224000118111B16FF0050403E0002408B100F022
:10225000E3FD204610BD00006C000020EFF3058078
:1022600058B9EFF3108040B909490868022801D035
:1022700030B109E0EFF3118030B16FF00500704725
:1022800001200860002070474FF0FF3070470000C9
:102290006C00002010B5EFF3058060B9EFF31080FB
:1022A00048B90B490868022802D0012806D00BE083
:1022B000EFF3118040B16FF0050010BD02200860FF
:1022C00000F012FE002010BD4FF0FF3010BD0000E6
:1022D0006C000020F0B585B04FEA01034FF0000418
:1022E000EFF305810394A1BBEFF3108189BB214972
:1022F0000968022902D1EFF3118151BB48B380264E
:1023000018218DF8104004AD42B3176807B13D465F
:1023100097691FB139467F1E382F02D21779FF0700
:1023200002D0002005B0F0BD576907B1BE08D2F851
:1023300008C0BCF1000F0DD0D4685C2C18D3126912
:102340003AB137B18DE806103246294601F03DF921
:1023500003900DE0D7685FB912694AB903AACDE9C5
:102360000012B2B2294601F003F9012800D003940B
:102370000398D7E76C0000202DE9F041134C0F467D
:10238000054666692068001D00F016FC681C07D130
:1023900037B12168BDE8F0410D48091D00F05CBC73
:1023A00020683544B5424560216805D2A068BDE883
:1023B000F041091D00F038BC6068091D00F034FCD4
:1023C000206B854200D22563BDE8F0811C0000200F
:1023D000FC0500202DE9F041054600F049FC2D4C9C
:1023E0002069401C206120682B4F10B1E06930B398
:1023F0002BE025602069012827D1002606EB860006
:1024000007EB800000F002FC761C382EF6D3234840
:1024100000F0FCFB2148143000F0F8FB1F48283086
:1024200000F0F4FB1D483C3000F0F0FB1B4850303E
:1024300000F0ECFB194860601430A06005E02068F3
:10244000E96AC06A884200D82560E06A401CE06200
:102450006864E86AA169884200D9A06100EB800045
:1024600007EB8000291D00F0F7FB00F021FCE0697C
:1024700000280CD02068E96AC06A884207D208495F
:102480004FF080500860BFF34F8FBFF36F8FBDE8F0
:10249000F08100001C0000204C010020AC05002051
:1024A00004ED00E038B500F0E3FB104CA068C8B9BB
:1024B0000F4800F0ABFB0E48143000F0A7FB0C48AF
:1024C0002060143060600A4B00202833009003F134
:1024D000500210210A2000F0EFFDA06010B105A10C
:1024E00000F064FCBDE8384000F0E2BB580000207A
:1024F00010060020546D72510000000030B4026CD0
:102500000B46002A0BD0C1681144C1604468A14247
:1025100001D30168C16030BC1846FDF7B9BF30BCBB
:1025200070472DE9F041856B174604460026026C82
:1025300082B1C7B1E068FDF7ABFFE168206C091A12
:10254000E1602268914202D26168081AE060022FBD
:1025500016D017E02068A8B9606801F0D9F80646DF
:10256000002060600EE0A068FDF792FF216CA0687B
:102570000844A0606168884204D32068A06001E03C
:1025800005B16D1E6D1CA5633046BDE8F08110B528
:10259000044690F8590058B101280CD002280FD0F9
:1025A000502080F31188BFF34F8FBFF36F8FFEE78A
:1025B000206B00F091FB2046BDE8104000F08CBB82
:1025C00010BD000010484FF44061420706D0C01D06
:1025D0000D4920F00700411AC1F540610B4A002364
:1025E0000144C2E900030839103A21F007011160E3
:1025F0004B600B600B1AC0E9001393604FF0004072
:102600005360D06070470000E00D00208000002083
:10261000144E154CA6F29C474FF08058DFF84C90B2
:1026200012E000BF00F024FBF068C568281D00F030
:10263000C3FA2069401E2061E068401EE06000F09F
:1026400037FB2846FFF7A3FFE0680028EAD1386887
:102650000128F9D9C9F80080BFF34F8FBFF36F8FFE
:10266000F2E70000E80500201C00002004ED00E077
:1026700070B51D46049C51B1C4F80020C4E90F0197
:102680000121204600F04CFD84F84C5070BD2460C0
:10269000F4E72DE9F0470E46DDE909841746824646
:1026A00091009946089DA522206BFDF736FF6FF03B
:1026B0000301206B01EB8701084420F0070778072E
:1026C00007D0502080F31188BFF34F8FBFF36F8F77
:1026D000FEE72218315C82F83410315C11B1401CE5
:1026E0001028F6D3002684F84360382D00D3372510
:1026F000E562C4E91356201D00F093FA04F11800B6
:1027000000F08FFA2461C5F138006462A06166654B
:1027100084F858604A465146384600F03BFA20603B
:10272000B8F1000F01D0C8F80040BDE8F087000004
:1027300030B5114900E011460A688242FBD34B686C
:102740005C18844203D140681844486008464368D6
:102750001C18944209D1084C103C2468A24209D0AC
:1027600052681A4442600A6812680260814200D0CE
:10277000086030BD0460F9E78000002070B50024D7
:1027800041600B4D0061914206D8D11A8269914295
:1027900006D2011D686807E09A4203D2994201D32C
:1027A000012403E0011D286800F03EFA204670BDB8
:1027B0005800002010B5044600F05AFAA06B28B16A
:1027C0005FF0000400F074FA204610BD0124F9E720
:1027D00030B589B0304D55E00498002806DADDE9BF
:1027E0000601059A9047049800284BDB069C606917
:1027F00010B1201D00F0E0F902A800F0B9F802467F
:1028000004980A283ED2DFE800F00505053D26378A
:1028100005053D260598A169034601442046FFF7BA
:10282000ADFF00B3616A20468847E069012829D1DD
:10283000002000900598A1690023421819462046FF
:1028400001F070F878B9502080F31188BFF34F8FF2
:10285000BFF36F8FFEE70598A06128B1811813467A
:102860002046FFF78BFF0DE0502080F31188BFF367
:102870004F8FBFF36F8FFEE794F82C0010B92046FE
:1028800000F02AFA002204A9A86800F09BFD0028A5
:10289000A2D109B030BD0000580000202DE9FC4154
:1028A0000F46054600F064FB01A800F061F80446FD
:1028B000019818B100F0A4FFBDE8FC81224EAFB131
:1028C00070680068A8B30027291B3A46B06800F07A
:1028D00081FA00F095FF0028EED11C494FF080509E
:1028E0000860BFF34F8FBFF36F8FE5E7A542EBD8CA
:1028F00000F086FF30682746C068C468201D00F0DD
:102900005BF9E069012810D1A0692B4641193A46CC
:102910002046FFF733FF40B10020034601460090F8
:102920002A46204600F0FEFF20B1616A2046884713
:10293000C2E707E0502080F31188BFF34F8FBFF349
:102940006F8FFEE70127BFE75800002004ED00E08D
:1029500006484168096829B14168C968C968496879
:10296000016370474FF0FF31FAE700001C000020C0
:1029700070B5054600F062FE064E0446306984429A
:1029800003D200F009F8012000E000202860204672
:10299000346170BD58000020F8B5194D1FE0C068C3
:1029A000C4680668201D00F007F9616A2046884760
:1029B000E069012813D1A0693044B04206D92461EE
:1029C0006060211D286800F02FF908E00020034610
:1029D000014600903246204600F0A4FF38B1286836
:1029E00001680029DBD16968C5E90010F8BD5020F5
:1029F00080F31188BFF34F8FBFF36F8FFEE70000A6
:102A00005800002008484068401C4FF0500080F3F8
:102A1000118804D0BFF34F8FBFF36F8FFEE7BFF372
:102A20004F8FBFF36F8FFEE788000020074C2068B0
:102A3000016841B1C0680021D0F80000FFF72EFF07
:102A4000FFF7C6FEF3E701210020F7E7580000205A
:102A50002DE9F041044600F00BF994F9455004F1DA
:102A6000240609E0606A48B1304600F091FE08B1E2
:102A700000F000FA6D1E6DB2002DF3DC4FF0FF3652
:102A800084F8456000F014F900F0F2F894F944502D
:102A900004F1100709E0206948B1384600F078FEDB
:102AA00008B100F0E7F96D1E6DB2002DF3DC84F87B
:102AB0004460BDE8F04100F0FBB800002DE9F041B2
:102AC0000546002700F054FA314E306808B9FFF788
:102AD00079FDF06805424BD1C5B3083568070ED0C3
:102AE00005F00700C0F108000544680707D0502032
:102AF00080F31188BFF34F8FBFF36F8FFEE72DB3C5
:102B00007068854234D82248103001460C6801E0D4
:102B100020460C466168A94202D221680029F7D1FB
:102B200031688C4224D007682168016060680837EA
:102B3000411B10290FD96019420708D0502080F39B
:102B40001188BFF34F8FBFF36F8FFEE710E0416036
:102B50006560FFF7EDFD61687068401A7060B268EB
:102B6000904200D2B060F06801430020C4E9000147
:102B700000F046FE780707D0502080F31188BFF39D
:102B80004F8FBFF36F8FFEE73846BDE8F08100003E
:102B90007000002010B5031F4FF080741C601B1FD5
:102BA00021F001011960191F024B0B6014394038E4
:102BB0000A6010BD052A0008D0E9013201699A6057
:102BC000D0E901235A604A68824201D182684A6092
:102BD000002202610868401E086008687047000013
:102BE000034B036003F15C000860802010607047B5
:102BF00028070020044B036003F15C0008604FF4D9
:102C000080701060704700008409002000F1080106
:102C10004FF0FF32C0E90112C16001610021016083
:102C2000704700210161704730B50B685A1C02D013
:102C300000F1080202E0026904E0224654682568B7
:102C40009D42FAD953684B6099608A60516008616F
:102C50000168491C016030BD42684A6093688B601E
:102C600093685960916008610168491C0160704770
:102C7000502080F31188BFF34F8FBFF36F8F0A4945
:102C80004868401C486001280CD10848006810F0D2
:102C9000FF0F07D0502080F31188BFF34F8FBFF391
:102CA0006F8FFEE7704700008800002004ED00E011
:102CB0000849486828B1401E486001D180F3118856
:102CC0007047502080F31188BFF34F8FBFF36F8F91
:102CD000FEE700008800002070B5002827D0144DC2
:102CE000A0F108046168E868014207D1502080F330
:102CF0001188BFF34F8FBFF36F8FFEE722683AB1A1
:102D0000502080F31188BFF34F8FBFF36F8FFEE722
:102D10008143616000F02CF960686968084468606C
:102D20002046FFF705FDBDE8704000F069BD70BDAD
:102D3000700000204FF0E020002101618161054911
:102D40004FF47A720968B1FBF2F1491E4161072123
:102D5000016170471800002010B5FDF761FA1149B4
:102D600010280ED300F1E02090F8F0030A7890428A
:102D700007D2502080F31188BFF34F8FBFF36F8FBE
:102D8000FEE709480068896800F4E060884207D9D6
:102D9000502080F31188BFF34F8FBFF36F8FFEE792
:102DA00010BD0000880000200CED00E010B5084BBD
:102DB000002200BF53F832401CB1521C082AF9D33C
:102DC00010BD43F8321003EBC201486010BD000093
:102DD0000C01002070B515460E460446FFF748FF6B
:102DE00094F944100020491C01D184F8440094F95E
:102DF0004510491C01D184F84500FFF759FFA06B2D
:102E000028B92A46314604F1240000F051F8204642
:102E1000BDE87040FFF71CBE10B5020014D00F488B
:102E2000806B38B1502080F31188BFF34F8FBFF310
:102E30006F8FFEE700F09CF800211046FFF79CFA28
:102E400000F0DEFC002807D105494FF080500860F3
:102E5000BFF34F8FBFF36F8F10BD00001C00002029
:102E600004ED00E002498A6A0260496941607047E6
:102E70001C00002001490120486270471C0000200E
:102E800010B50C4650B1094909681831FFF7CCFE5E
:102E90002046BDE810400121FFF76EBA502080F3B4
:102EA0001188BFF34F8FBFF36F8FFEE71C00002028
:102EB00070B514460D4668B10A4909681831FFF724
:102EC000CBFE0CB14FF0FF3521462846BDE87040DF
:102ED000FFF752BA502080F31188BFF34F8FBFF332
:102EE0006F8FFEE71C00002030B587B000240394EC
:102EF00005AA04A903A80494FFF772FEDDE9030103
:102F00000094CDE90110002315A11748059A00F09F
:102F10005CFB164D002868631FD000F0D3FC01282D
:102F200009D0401C19D1502080F31188BFF34F8F76
:102F3000BFF36F8FFEE7502080F31188BFF34F8FF0
:102F4000BFF36F8F4FF0FF3028630120E8616C61A1
:102F500007B0BDE8304000F045B807B030BD000014
:102F600049444C4500000000112600081C000020C8
:102F70000248816B491C8163704700001C000020DF
:102F8000164810B5816B11B10121416210BD0021BD
:102F900041628169124A01E0B9B1491E01EB810326
:102FA00052F82330002BF7D001EB810302EB8302B0
:102FB00002F1080453685B685360A34201D15B6867
:102FC0005360DA680260816110BD502080F311887F
:102FD000BFF34F8FBFF36F8FFEE700001C00002090
:102FE0004C0100201CB5264908780190FF2008708C
:102FF00008788DF800009DF800009DF8002000F092
:10300000F000904207D0502080F31188BFF34F8F1B
:10301000BFF36F8FFEE79DF800001A4B00F05000E1
:1030200018700720986005E09DF8002052008DF888
:103030000020401E9DF800201206F5D49860032859
:1030400007D0502080F31188BFF34F8FBFF36F8FED
:10305000FEE74FF440709860019808700A480168D4
:1030600041F470010160016841F070410160FFF7B7
:1030700061FE00205860FDF79DF800201CBD000097
:1030800000E400E08800002020ED00E010B55020B2
:1030900080F31188BFF34F8FBFF36F8F00F0D4FA26
:1030A00018B104494FF080500860002080F3118867
:1030B00010BD000004ED00E038B5049D18B153B117
:1030C000CAB181B120E0502080F31188BFF34F8F47
:1030D000BFF36F8FFEE7502080F31188BFF34F8F4F
:1030E000BFF36F8FFEE7502080F31188BFF34F8F3F
:1030F000BFF36F8FFEE739B1502080F31188BFF323
:103100004F8FBFF36F8FFEE750241C46012384F8D6
:1031100046302B460094FFF7ABFA204638BD00003E
:1031200070B50D46040025D0FFF7A2FDD4E90F20AD
:10313000216802FB001161600021A1632168A16088
:103140000A46D4E90F01401E00FB0121E16021463F
:103150004FF0FF3001F8440F487004F110008DB1BA
:10316000FFF754FD04F12400FFF750FDFFF7A0FD29
:10317000012070BD502080F31188BFF34F8FBFF343
:103180006F8FFEE721690029F0D000F001FB0028D5
:10319000ECD004494FF080500860BFF34F8FBFF36D
:1031A0006F8FE3E704ED00E02DE9FF4782B01D4695
:1031B0008A464FF00008040003D0BAF1000F08D08F
:1031C00011E0502080F31188BFF34F8FBFF36F8F52
:1031D000FEE7206C38B1502080F31188BFF34F8F89
:1031E000BFF36F8FFEE7022D0AD1E06B012807D0F5
:1031F000502080F31188BFF34F8FBFF36F8FFEE72E
:1032000000F00EFA3F4F4FF000094FF0805648B9DA
:10321000049838B1502080F31188BFF34F8FBFF36B
:103220006F8FFEE7FFF724FDA06BE16B884207D3A9
:10323000022D05D00498D0B1B8F1000F1AD01EE0CD
:103240002A4651462046FFF76CF9616A19B104F12C
:10325000240000F09DFA20B13E60BFF34F8FBFF312
:103260006F8FFFF725FD012006B0BDE8F087FFF75F
:103270001FFD22E06846FFF7F5FD4FF00108FFF75C
:1032800017FDFFF775FEFFF7F3FC94F94400401CAF
:1032900001D184F8449094F94500401C01D184F890
:1032A0004590FFF705FD04A9684600F027F930B105
:1032B0002046FFF7CDFB00F0A3FA0020D4E7FFF78C
:1032C000D7FCA06BE16B884213D1FFF7F1FC04F14E
:1032D00010000499FFF7D4FD2046FFF7B9FB00F07A
:1032E0008FFA00289ED13E60BFF34F8FBFF36F8FE0
:1032F00098E7FFF7DDFC2046FFF7AAFB00F080FA15
:1033000090E7000004ED00E02DE9F0471F469046ED
:103310008946040003D0B9F1000F08D011E0502015
:1033200080F31188BFF34F8FBFF36F8FFEE7206CE0
:1033300038B1502080F31188BFF34F8FBFF36F8FE8
:10334000FEE7022F0AD1E06B012807D0502080F35E
:103350001188BFF34F8FBFF36F8FFEE7FFF7FCFCC1
:103360005020EFF3118680F31188BFF34F8FBFF326
:103370006F8FA06BE16B884206D3022F04D0002030
:1033800086F31188BDE8F08794F945503A464946DE
:103390002046FFF7C6F8681C04D06D1C84F8455021
:1033A0000120EDE7606A0028FAD004F1240000F063
:1033B000EFF90028F4D0B8F1000FF1D00121C8F8DE
:1033C0000010EDE72DE9F747002683B08A46040098
:1033D00003D0BAF1000F08D011E0502080F311881B
:1033E000BFF34F8FBFF36F8FFEE7206C38B15020D3
:1033F00080F31188BFF34F8FBFF36F8FFEE700F0AC
:103400000FF9DFF8F4804FF000094FF0805748B90A
:10341000059838B1502080F31188BFF34F8FBFF368
:103420006F8FFEE7FFF724FCA56BC5B15146204620
:10343000FFF764F86D1EA563206950B104F1100018
:1034400000F0A6F928B1C8F80070BFF34F8FBFF3A2
:103450006F8FFFF72DFC012006B0BDE8F0870598BF
:1034600008B11EB106E0FFF723FC27E06846FFF72E
:10347000F9FC0126FFF71CFCFFF77AFDFFF7F8FBCC
:1034800094F94400401C01D184F8449094F945001B
:10349000401C01D184F84590FFF70AFC05A9684655
:1034A00000F02CF8002820460AD0FFF7D1FA00F0EF
:1034B000A7F92046FFF77EF90028B3D00020CBE71C
:1034C000FFF778F990B104F124000599FFF7D8FCD3
:1034D0002046FFF7BDFA00F093F90028A2D1C8F802
:1034E0000070BFF34F8FBFF36F8F9BE72046FFF74E
:1034F000AFFA00F085F995E704ED00E02DE9F04121
:103500000C46050011D0C4B1FFF7B2FB174B5A6946
:103510006E682068911B471C17D02F689B6A9F42DA
:1035200019D0964217D8012410E0502080F311885A
:10353000BFF34F8FBFF36F8FFEE7502080F31188EA
:10354000BFF34F8FBFF36F8FFEE70024FFF7B0FB91
:103550002046BDE8F081884205D9401A20602846FF
:10356000FFF780FCF1E700202060DCE71C00002072
:103570002DE9FF5F8346DDE90E87994616468A46A8
:103580009000FFF79BFA05001CD05C20FFF796FA2D
:10359000040014D00020256384F85900CDE90240CE
:1035A000CDE900874B46324651465846FFF771F841
:1035B0002046FEF70FFF012004B0BDE8F09F28462B
:1035C000FFF78AFB4FF0FF30F6E7F0B585B0DDE995
:1035D0000B640A9DA6B1DCB15C2700972663022626
:1035E00084F85960002604AFCDE90246CDE90057C2
:1035F000FFF74FF82046FEF7EDFE049805B0F0BD4A
:10360000502080F31188BFF34F8FBFF36F8FFEE719
:10361000502080F31188BFF34F8FBFF36F8FFEE709
:103620000548C16919B1806B18B1002070470120AD
:1036300070470220704700001C00002001484069CC
:10364000704700001C0000202DE9F0412E4C00279F
:10365000A06B40B1206A401C2062606A00B1012763
:103660003846BDE8F0816669761C666113D16068F2
:10367000006838B1502080F31188BFF34F8FBFF33B
:103680006F8FFEE76068A1686160A060A06A401C5F
:10369000A062FFF75DF9206BDFF87080864209D3E6
:1036A0006068006880B16068C068C5686868864204
:1036B0000DD220632068C06A00EB800158F8210019
:1036C0000128CAD90127C8E74FF0FF30F1E7281DCC
:1036D000FFF772FAA86A18B105F11800FFF76CFA43
:1036E000E86AA169884200D9A06100EB800108EB7B
:1036F0008100291DFFF7B0FAE86A2168C96A88428B
:10370000CED30127CCE700001C0000204C01002094
:1037100070B504004FF0000133D01B4D286884427F
:1037200007D0502080F31188BFF34F8FBFF36F8F06
:10373000FEE7206D38B1401E2065E36CE26A9A42D4
:103740001FD040B11DE0502080F31188BFF34F8F90
:10375000BFF36F8FFEE7201DFFF72EFAE06CE062EB
:10376000C0F13800A061E06AA969884200D9A86167
:10377000064900EB800001EB8000211DFFF76CFA89
:103780000121084670BD00001C0000204C010020F3
:1037900070B5C068C46854B104F118000646FFF75C
:1037A0000BFA144DA86B50B13146134815E0502068
:1037B00080F31188BFF34F8FBFF36F8FFEE7201D9B
:1037C000FFF7FAF9E06AA969884200D9A8610B49B4
:1037D00000EB800001EB8000211DFFF73DFAE06A5D
:1037E0002968C96A884202D90120686270BD002038
:1037F00070BD00001C000020D40500204C010020FA
:103800002DE9F0472C4D00242746A86B38B1FFF76F
:103810002FFAA86B401EA863A86B40B146E0502069
:1038200080F31188BFF34F8FBFF36F8FFEE72969D5
:10383000224E0120D1B3A6F5916980463068E0B1EF
:10384000F068C46804F11800FFF7B6F9201DFFF70F
:10385000B3F9E06AA969884200D9A86100EB800148
:1038600009EB8100211DFFF7F7F9E06A2968C96AB1
:103870008842E3D3C5F82480E0E70CB1FFF768F88D
:103880002C6A4CB14FEA0806FFF7DEFE00B16E620B
:10389000641EF9D100202862686A38B108490127FE
:1038A00038070860BFF34F8FBFF36F8FFFF700FA41
:1038B0003846BDE8F08700001C000020D405002039
:1038C00004ED00E010B586B0FEF7ECFD114CA068E9
:1038D000B8B100200390049005AA04A903A8FFF73B
:1038E00089F9DDE9032102208DE8070000230AA100
:1038F0000B48059AFFF769FEE06010B106B00120A1
:1039000010BD502080F31188BFF34F8FBFF36F8F2E
:10391000FEE7000058000020546D722053766300CB
:103920002D2A00082DE9FF411E46134602000A9D7C
:103930004FF0000016D0144CA768002F0FD0CDE92F
:1039400000130292062917DAFFF76AFE02284FF0E9
:1039500000030FD000226946A068FFF725FC04B0E1
:10396000BDE8F081502080F31188BFF34F8FBFF383
:103970006F8FFEE72A46EEE7002332466946384657
:10398000FFF7C2FCEBE7000058000020003A0008F7
:103990000000000000000000000000000000000027
:1039A0000002000010000000000000000000000005
:1039B0000C3A0008000000000000000000000000B9
:1039C00000000000000200001800000000000000DD
:1039D00000000000000000000000000001020304DD
:1039E00006070809000000000102030404000008A3
:1039F00000000000000000020001000010000000B4
:103A00005461736B5F554152540000005461736BF5
:103A100054696D6500000000383A0008000000207D
:103A20009400000028010008CC3A0008940000200F
:103A3000AC1F00004401000800000000000000006E
:103A40000000000001000000100000000000000065
:103A50000024F4000000000000000000000000004E
:103A60000000000000000000000000000000000056
:103A70000000000000000000000000000000000046
:103A80000000000000000000000000000000000036
:103A90000000000000000000000000000000000026
:103AA0000000000000000000000000000000000016
:103AB0000000000000000000000000000000000006
:0C3AC00000000000AAAAAAAA0000000052
:04000005080000ED02
:00000001FF
