:020000040800F2
:100000004020002039020008CB250008792500088F
:10001000C925000849140008512900080000000003
:10002000000000000000000000000000A101000826
:100030004B14000800000000E5010008A12600089C
:10004000530200085302000853020008530200083C
:10005000530200085302000853020008530200082C
:10006000530200085302000853020008530200081C
:10007000530200085302000853020008530200080C
:1000800053020008530200085302000853020008FC
:1000900053020008530200085302000853020008EC
:1000A00053020008530200085302000853020008DC
:1000B00053020008530200085302000853020008CC
:1000C00053020008530200085302000853020008BC
:1000D0005302000853020008452900085302000893
:1000E00053020008530200085302000800F002F80F
:1000F00000F047F80AA090E8000C82448344AAF17B
:100100000107DA4501D100F03CF8AFF2090EBAE878
:100110000F0013F0010F18BFFB1A43F0010318473B
:100120005C4900007C490000103A24BF78C878C1BF
:10013000FAD8520724BF30C830C144BF04680C60ED
:10014000704700000023002400250026103A28BF35
:1001500078C1FBD8520728BF30C148BF0B60704739
:10016000662904F00384002070471FB500F0C4FB2B
:1001700004000020002104F00FF8E0601FBD10B55E
:1001800010BD00F0B9FC1146FFF7EFFF02F006FCCE
:1001900000F0D7FC03B4FFF7F2FF03BC00F01AFD38
:1001A000224B19680868B0E8F00F80F30988BFF3A4
:1001B0006F8F4FF0000080F311884EF00D0E7047E6
:1001C0000000000006480068006880F3088862B6F6
:1001D00061B6BFF34F8FBFF36F8F00DF00BF00BF6B
:1001E00008ED00E0EFF30980BFF36F8F0F4B1A6843
:1001F00020E9F00F106008B54FF0500080F311882F
:10020000BFF34F8FBFF36F8F03F0C0FA4FF00000C2
:1002100080F31188BDE8084019680868B0E8F00F5D
:1002200080F30988BFF36F8F704700BF1C00002068
:10023000EFF30580704700000948804709480047F0
:10024000FEE7FEE7FEE7FEE7FEE7FEE7FEE7FEE786
:10025000FEE7FEE704480549054A064B70470000E3
:1002600031270008ED000008401A0020402000203F
:10027000401C0020401C00200FB41CB5074B06AAF0
:100280007B4469460090059800F0C9FA0020694651
:1002900000F0D8FA1CBC5DF814FB0000C10500009A
:1002A0002DE9F0410E460446002020622046E16818
:1002B000884730B3252805D0D4E901219047206A2A
:1002C000401CF2E7E168204600278847050018D067
:1002D000A5F14100192802D820354FF400673246B5
:1002E000294620462760FFF73BFF40B1012804D094
:1002F000F61D26F007060836D8E7361DD6E728464D
:10030000DAE7206ABDE8F081032A40F2308010F07D
:10031000030C00F0158011F8013BBCF1020F6244A0
:1003200098BF11F801CB00F8013B38BF11F8013B31
:10033000A2F1040298BF00F801CB38BF00F8013BDE
:1003400011F0030300F08382083AC0F0088051F8EE
:10035000043B083A51F804CBA0E80810F5E7121D59
:100360005CBF51F8043B40F8043BAFF30080D20778
:1003700024BF11F8013B11F801CB48BF11F8012B44
:1003800024BF00F8013B00F801CB48BF00F8012B67
:10039000704702F0FF0343EA032242EA024200F000
:1003A0008ABA4FF0000200B51346944696462039AB
:1003B00022BFA0E80C50A0E80C50B1F12001BFF41E
:1003C000F7AF090728BFA0E80C5048BF0CC05DF884
:1003D00004EB890028BF40F8042B08BF704748BFD2
:1003E00020F8022B11F0804F18BF00F8012B704746
:1003F00070477047704770472DE9FF4F0C461E4607
:100400004FF0FF378BB0D2E90001DDF860800A9031
:100410008A46C1F30A5505B93D46002108464FF00A
:100420000000BAF1000F00F4400005DA00EB800094
:100430004FF4400101EA50004FEA9059B9F1010F21
:1004400000DDB9460A9850EA4A000ED044F6105032
:10045000A5F2FF3545432F14B8F1000F1ED07542A9
:10046000291E1EDDC9F100021CE0B8F1010F4FF09A
:10047000000001D0302103E0F24305E02154401C8C
:10048000B042FBDB30460022002121540B99C1F819
:100490000880C1E900200FB0BDE8F08FBD1B6D1CC6
:1004A000DEE74A4600DA694206A800F0AFFA06AB7A
:1004B00093E8070003AB83E8070050460A9900F071
:1004C00090FB8DE80700A0F500501F3800900398BE
:1004D000002D0ADD42F21F014A460844002303A909
:1004E0000390684600F0F9FD09E0A0F500504A4687
:1004F0001F38002303A90390684600F003FE8DE82F
:1005000007000004000C03D04FF0FF30410800E06A
:100510001046B8F1000F03D00022009215461EE0ED
:10052000751E05D400F0ECF9303262556D1EF9D518
:10053000B3460122084302D000227F1C04E0207849
:10054000302801D100227F1E002A099784D01DE0A7
:10055000112D07DA00F0D4F9303262556D1C50EAE3
:100560000102F5D1084302D00098C8B10EE0002185
:10057000681E05E0235C625C63542254401E491CE3
:100580008142F7DBAB46A81B401E0990002004F80F
:100590000B000B98099AC0F80880C0E9002B7AE795
:1005A00011264FF0000857E72DE9F04F8846044622
:1005B000D21D22F0070191B0D1E90001CDE90A0175
:1005C00002F0C7F902460B98C00F01D02D2007E0BA
:1005D0002068810701D52B2002E0202101EAC0001C
:1005E000032A099001D0072A05DB0346414620462D
:1005F00000F0CCF90BE12078800601D5E06900E03D
:100600000620B8F1650F814606D0B8F1660F18D004
:10061000B8F1670F70D131E00020B9F1110F0090EF
:1006200001DB112301E009F101030AAA01A90CA8C9
:10063000FFF7E2FEDDE90C70002609F101058346B3
:1006400047E001204B4600904FF000470AAA01A95D
:100650000CA8FFF7D1FEDDE90DB00C995D46002630
:1006600010B909F101000D18B9EB050003D4C0F170
:10067000FF3609F10105A5EB09002BE0B9F1010FE7
:1006800001DA4FF001090020B9F1110F009048463E
:1006900001DD112300E003460AAA01A90CA8FFF717
:1006A000ABFEDDE90C704D4600268346207800073E
:1006B0000AD4AB4500DA5D4601A8012D04DD4119DD
:1006C00011F8011C302907D04F4502DA17F1040F49
:1006D00004DA012082460FE06D1EEEE7002F02DCF7
:1006E000ED1B3E4403E0781CA84200DD7D1CB81BD6
:1006F00000F1010A4FF000472078000703D4AA4513
:1007000001DB4FF0FF3A0021B7F1004F0DF1430834
:100710008DF8431024D002202B23002F01DA7F42D2
:100720002D230A21021EA0F1010000DC5FB197FB1E
:10073000F1FC97FBF1F201FB1C7C17460CF1300C2D
:1007400008F801CDEEE7A8F1010003702188090542
:1007500001D5452100E06521A0F1010800F8011C48
:1007600009980FA9A1EB0807FF1D00B1012041194D
:1007700001EBEA70A1693844081A401EA061207894
:10078000C00602D42046AFF30080099828B1D4E90E
:1007900001219047206A401C20622078C00622D5A3
:1007A0002046AFF300801EE0002E04DBB34502DDDF
:1007B00001A8805D00E03020D4E901219047206A43
:1007C000401C2062761CAAF101005FEA000A0AD1EF
:1007D00000F092F8C0680168405CD4E901219047BC
:1007E000206A401C2062281EA5F10105DCDC07E020
:1007F000D4E9012118F8010B9047206A401C2062BF
:10080000381EA7F10107F3DC2046AFF30080032078
:1008100011B041E601694A1C02610878704700B5D1
:100820008FB0CDE901310021059105497944CDE929
:10083000031011466846FFF733FD0FB000BD0000FE
:10084000E5FFFFFF0A6802F8010B0A60704710B568
:10085000203AC0F00B80B1E81850203AA0E81850B8
:10086000B1E81850A0E81850BFF4F5AF5FEA027C79
:1008700024BFB1E81850A0E8185044BF18C918C0E8
:10088000BDE810405FEA827C24BF51F8043B40F889
:10089000043B08BF7047D20728BF31F8023B48BF6E
:1008A00011F8012B28BF20F8023B48BF00F8012BAC
:1008B00070474FF000020429C0F0128010F0030CC2
:1008C0003FF471ADCCF1040CBCF1020F18BF00F87D
:1008D000012BA8BF20F8022BA1EB0C01FFF763BD91
:1008E0005FEAC17C24BF00F8012B00F8012B48BF50
:1008F00000F8012B7047000000487047FC190020E9
:1009000030B5B0F10A024FEA900E71F100034EEAE1
:10091000817EB0EB0E0061EB91014FEA101E4EEAB2
:10092000017E10EB0E0041EB11114FEA102E4EEA42
:10093000016E10EB0E0041EB11214FEA104E4EEA12
:10094000014E10EB0E0041EB1141401841F1000146
:100950004FEAD00040EA41704FEAD10110EB800528
:100960004FEA810444EA907444EB01046D1944EBAE
:100970000404521BA3414FF0000348BF0A3200D5C4
:1009800030BD401C41F1000130BD00002DE9F041B7
:100990001F46044603260168072A01F4006004DBB1
:1009A00008B116A505E016A503E008B115A500E0FD
:1009B00015A521F010002060A069C01EA0610FB134
:1009C000401EA0612046AFF300804FB1D4E9012161
:1009D00038469047206A401C2062C01C206206E016
:1009E000206AFAE7D4E9012115F8010B9047761E39
:1009F000F8D22046AFF30080BDE8F0814E414E00B2
:100A00006E616E00494E4600696E66002DE9F04742
:100A1000814616468AB0354878440DC88DE80D00E9
:100A200032487844801C03AC0DC884E80D0041F6C0
:100A30009B300844372190FBF1F290FBF1F5A5F1D2
:100A4000800501FB12041B3C02D56442012000E03A
:100A50000020DFF898A080460027FA44AAF1BE0AD9
:100A60000EE0E0070AD03246684607EB4701012353
:100A70000AEB810100F046FB8DE8070064107F1C43
:100A8000002CEED1194F7F44AE3F19E0E80715D096
:100A900007EB04100DF1180A90E80E008AE80E002A
:100AA000C068F04201D1981908903246012306A986
:100AB00003A800F027FB03AB83E807006D10641C5C
:100AC000002DE3D14FF0010332466946B8F1000F23
:100AD00003A802D000F001FB01E000F013FBC9E91C
:100AE0000001C9F808200AB0BDE8F08730400000D6
:100AF00000487047DC1900207546FFF7F9FFAE4645
:100B000005006946534620F00700854618B020B519
:100B1000FFF7A0FBBDE820404FF000064FF00007B4
:100B20004FF000084FF0000B21F00701AC46ACE895
:100B3000C009ACE8C009ACE8C009ACE8C0098D4602
:100B4000704710B50446AFF300802046BDE8104062
:100B5000FFF720BB4FF0013C50F8042B51F8043B49
:100B60009A4221D1A2EB0C03934313EACC1317D181
:100B700050F8042B51F8043B9A4215D1A2EB0C0318
:100B8000934313EACC130BD150F8042B51F8043BD8
:100B90009A4209D1A2EB0C03934313EACC13DBD0A6
:100BA0004FF00000704700BFD01A01BAB1FA81F1CE
:100BB00001F0180122FA01F0CB40C1F12001DBB2B3
:100BC000C0B2C01A2CFA01F3D11A914311EAC31131
:100BD000E6D1704701491820ABBEFEE726000200AF
:100BE00070475FEA400C08BF91F0000F4FEA8C237A
:100BF0004FEAC12243EA51514FEA1C5018BF00F599
:100C0000F0404FEA300018BF41F000415FEA6C5CF1
:100C100000F02980BCF1FF3F08BF40F080407047E2
:100C2000130C06BF12044FF0100C4FF0000C130E03
:100C300004BF12020CF1080C130F04BF12010CF1D7
:100C4000040C930F04BF92000CF1020CD30F04BFED
:100C500052000CF1010C11464FF00002A0F11F00F0
:100C6000A0EB0C00704711F0004F08BF704731F047
:100C700000413FF4D5AF0B0C06BF09044FF0100C38
:100C80004FF0000C0B0E04BF09020CF1080C0B0F07
:100C900004BF09010CF1040C8B0F04BF89000CF197
:100CA000020CCB0F04BF49000CF1010CCCF1200366
:100CB000A0EB0C0022FA03F302FA0CF241EA030162
:100CC00000F10100704720F07F4C80EA030023F020
:100CD0007F47ACEB070303F57C5300F0004003F1C2
:100CE000FF032DE980494FEA154B09B44FEA14433D
:100CF00025EA0B4E24EA03480FF2042606EB1327DD
:100D000049083E785FEA320203FB0667C7F5000731
:100D100007FB06F64FEA54374FEAD64606F10206BD
:100D200007FB066CCCF1005C4FEA1C472CEA074C31
:100D300007FB06F40CFB06F504EB15464FEA961686
:100D400034BF00204FF000404FEAD13706FB07FCCC
:100D50004FEA1C4C0CFB0BF7D21B03FB0CF761EBAF
:100D600007010CFB0EF7B0EB074072EB17420CFBD0
:100D700008F734BFA2EB0742B2EB074261EB174121
:100D80004FEA0C444FEA910706FB07FC4FEA1C4C64
:100D90000CFB0BF7B0EBC74072EB573203FB0CF7C1
:100DA00034BFA2EBC742B2EBC74261EB57310CFB39
:100DB0000EF7B0EBC70072EB57720CFB08F734BFAD
:100DC000A2EBC702B2EBC70261EB5771039F4FEA78
:100DD000816141EA921104EBCC044FEAD1374FEA2A
:100DE000826206FB07FC42EA90124FEA80604FEAFB
:100DF0001C4C0CFB0BF7D21B03FB0CF761EB070140
:100E00000CFB0EF7B0EB074072EB17420CFB08F738
:100E100034BFA2EB0742B2EB074261EB17414FEA46
:100E20008C554FEA910704EB9C2406FB07FC4FEA24
:100E30001C4C0CFB0BF7B0EBC74072EB573203FBBB
:100E40000CF734BFA2EBC742B2EBC74261EB57319C
:100E50000CFB0EF7B0EBC70072EB57720CFB08F7F8
:100E600034BFA2EBC702B2EBC70261EB577115EBBF
:100E70004C254FEA816141EA92114FEA82624FEAC2
:100E8000D13742EA901206FB07FC44F100044FEA16
:100E900080604FEA1C4C0CFB0BF7D21B03FB0CF7DA
:100EA00061EB07010CFB0EF7B0EB074072EB17424A
:100EB0000CFB08F734BFA2EB0742B2EB074261EB31
:100EC000174115EB1C154FEA813141EA92414FEA77
:100ED000823242EA90424FEA80304FEA0C7644F187
:100EE000000448EA03434EEA0B484FF0000EB2EB11
:100EF000080C71EB030724BF624639464EEB0E0E19
:100F00004FF0000B0018524149414BEB0B0BB2EB79
:100F1000080C71EB03077BF1000B24BF62463946D6
:100F20004EEB0E0E4FF0000B0018524149414BEBB7
:100F30000B0BB2EB080C71EB03077BF1000B24BF2A
:100F4000624639464EEB0E0E51EA020718BF46F0D4
:100F5000010616EB0E7655F1000254F1000103D59F
:100F6000BDE88901BDE80088BDE88901BDE8004809
:100F7000B619524141EB0101A3F101037047808092
:100F80007F7E7D7C7B7A79787776767574737271E3
:100F900071706F6E6E6D6C6C6B6A6A69686867669B
:100FA00066656464636362616160605F5F5E5E5D2D
:100FB0005D5C5C5B5B5A5A595958585757565655A1
:100FC00055555454535352525251515050504F4F03
:100FD0004F4E4E4D4D4D4C4C4C4B4B4B4A4A4A4953
:100FE0004949484848474747474646464545454496
:100FF0004444444343434342424242414141002B23
:101000009C4630D477002BD01CB54FEA370703B489
:101010004FF010004FF01001BAF1000F06D0BCF1F4
:10102000000FDCBF40F0080040F008014FF0000066
:101030000FBCBDE810400BF1010BBBF1010F08BF65
:101040005FEA170722BF12F1010211F101014FF00F
:10105000004143F1000300F0004043EA0000704704
:10106000F9D35708D0E746EA064613F1400F4FEA96
:1010700016461FDD13F1200FDFBF16430A4600217D
:1010800020335B42BED0C3F1200746EA064602FA8F
:1010900007F74FEA164646EA0706C3F1200722FA89
:1010A00003F201FA07F721FA03F14FF0000342EAD5
:1010B0000702A7E746EA020646EA06464FEA164650
:1010C00046EA0106BCBF46EA0646360C4FF000036E
:1010D0004FF000024FF0000194E72DE9804C9A4652
:1010E000934670B491E8380007C831EA400C48BF15
:1010F00034EA430C03D5FFF7E6FDFFF780FFF0BCB1
:10110000BDE8008C2DE9804C9A46934670B491E876
:10111000380007C810F0804F08BF13F0804F03D18C
:1011200000F005F8FFF76BFFF0BCBDE8008C20F085
:101130007F4780EA030023F07F4C07EB0C03A3F505
:101140007C5300F00040A3F1FE0392F0000F00F08A
:10115000B38095F0000F00F077802DE901494FEA48
:1011600011404FEA144621EA004800FB06FC24EA3D
:10117000064708FB06F607FB08F800FB07F718EB25
:1011800006484CEB164C4FEA124B18EB07484FEA57
:1011900015464CEB174022EA0B4E0BFB06FC25EAEA
:1011A00006470EFB06F607FB0EFE0BFB07F71EEBD2
:1011B000064E4CEB164C4FF000061EEB074E4CEB68
:1011C000174B18EB0B0840F1000018EB0E0B58EB17
:1011D000000840F100008F1A4FF000013CBFC943E6
:1011E000661B14BFB5EB040C00213CBFC943F61BC2
:1011F0004FEA17444EEA8E0E27EA04454FEA1C4791
:1012000004FB07622CEA074C05FB07F70CFB05F60D
:1012100004FB0CFC16EB074642EB174216EB0C46A0
:1012200042EB1C421BEB060658EB0202414146EA28
:101230009E0601D5BDE80189B619524141EB010175
:10124000A3F10103BDE801894FEA14454FEA1147B4
:1012500024EA054621EA074C05FB07F406FB07F7DD
:101260000CFB06F105FB0CFC11EB074144EB1744AA
:101270004FEA124711EB0C4144EB1C4422EA074CA5
:1012800005FB07F206FB07F70CFB06F605FB0CFC5B
:1012900016EB074642EB174216EB0C4642EB1C4599
:1012A0006A1854F1000148BF7047B619524141EB2A
:1012B0000101A3F10103704795F0000F37D04FEA09
:1012C00011424FEA144721EA024624EA074C02FB86
:1012D00007F106FB07F70CFB06F402FB0CFC14EB12
:1012E000074441EB17414FEA154714EB0C4441EB1F
:1012F0001C4125EA074C02FB07F506FB07F70CFB30
:1013000006F602FB0CFC16EB074645EB174516EB01
:101310000C4645EB1C42121951F1000148BF7047C1
:10132000B619524141EB0101A3F1010370474FEAA5
:1013300014454FEA114724EA054621EA074C05FB0C
:1013400007F106FB07F70CFB06F24FF0000605FB62
:101350000CFC12EB074241EB174112EB0C4251EB34
:101360001C4148BF7047921841EB0101A3F10103F2
:101370007047000070B5044600688168C943C9071A
:1013800017D1816821F00101816000F075FB0546ED
:101390000AE000BF00F070FB401B022804D920685F
:1013A0008068C043C00706D020688068C043C0077B
:1013B000F0D0002070BDA06A40F01000A062E06A8A
:1013C00040F00100E062012070BD0000F8B5002689
:1013D0000446009600688168C943C9072DD081681A
:1013E00041F001018160164816490068B0FBF1F038
:1013F00000E0401E00900028FBD100F03DFB0546B8
:1014000016E000BF00F038FB401B022810D920680E
:101410008068C043C0070BD0A06A40F01000A062F3
:10142000E06A40F00100E06284F824600120F8BD29
:1014300020688068C043C007E4D10020F8BD0000E8
:101440001800002040420F00FEE77047F8B5002466
:10145000009490F824202546012A12D0012280F819
:1014600024204A681F23072A0DD20668776B521E74
:1014700002EB820293409F430B6893401F437763C4
:1014800019E00220F8BD06680D2A0AD2376BD21F78
:1014900002EB820293409F430B6893401F433763E4
:1014A00009E0F76A0D3A02EB820293409F430B6812
:1014B00093401F43F7620A68072306680A2A0AD383
:1014C000F7680A3A02EB420293409F438B689340CD
:1014D0001F43F76008E0376902EB420293409F43E5
:1014E0008B6893401F4337610A68102A01D0112A84
:1014F00020D1124B02689A4217D193681B0219D46B
:10150000936843F4000393600968102912D10C49D1
:101510000C4A0968B1FBF2F101EB8101490000E0DE
:10152000491E00910029FBD104E0816A41F02001AD
:101530008162012480F824502046F8BD0024014037
:101540001800002040420F000068C06C7047000087
:101550002DE9F0414FF0000704003D467ED0A06A1F
:10156000002628B9E66284F82460204600F07EF860
:101570002046FFF7FFFEA16AC90600D420B1A06A89
:1015800040F01000A06269E0A16A21F4885141F0A6
:101590000201A1626268E169237B0A4347EA4301D1
:1015A0000A43A1684FF48077B94209D0012907D0D6
:1015B0005FF0000194F814C0BCF1010F02D00AE002
:1015C0003946F7E7F3B1A36A43F02003A362E36A65
:1015D00043F00103E3622368D3F804C02CF4694CA0
:1015E0004CEA010CC3F804C021688B68DFF870C0B6
:1015F00003EA0C0313438B60A168B9420BD00129A5
:1016000009D00CE0DFF85CC0A3690CEB43330B435B
:1016100043F40061DFE7218A0D05A5F580152168F7
:10162000CB6A23F470032B43CB62216889680E4B8D
:101630001940914208D1E662A16A21F0020141F00D
:101640000101A162BDE8F081A06A20F0020040F033
:101650001000A062E06A40F00100E0620120F1E7C2
:10166000FDF7E1FF00E0FFFFFE0E1FFF00B585B0B4
:101670000021009101910291039100680E49884276
:1016800018D10E48816941F400718161816901F4CA
:1016900000710491816941F00401816180696946AA
:1016A00000F0040004900220009003200190044800
:1016B00000F0F2F805B000BD002401400010024027
:1016C0000008014070B5044690F8240001280DD0B0
:1016D000012084F824002046FFF778FE02004FF036
:1016E000000005D084F82400104670BD022070BDB3
:1016F000A16A40F20123994341F48071A1621F4D18
:1017000023681F49AB4218D10E6816F4702F14D00D
:10171000A66A46F48016A6620E68760505D5A66A06
:1017200026F4005646F48056A662A66AF6040AD548
:10173000E66A26F00606E66206E0A66A26F4801649
:10174000A6625E68E9E7E06284F824006FF00200B8
:10175000186020688368C3F34243072B05D1A84271
:1017600008D1096811F4702F04D0816841F4801108
:101770008160B9E7816841F4A001F9E700280140E0
:101780000424014010B5044690F82400012807D035
:10179000012084F824002046FFF7ECFD10B107E09B
:1017A000022010BDA16A21F4885141F00101A1621B
:1017B000002184F8241010BD10B590F821100022EB
:1017C000022905D00421816380F82020012010BD6A
:1017D00001680B6823F00E030B6001680B6823F0AF
:1017E00001030B6090F84030C46B012101FA03F350
:1017F000636080F8211080F82020104610BD0000A2
:1018000010B590F821100024022903D0042181632F
:1018100001243DE001680A6822F00E020A600168B6
:101820000A6822F001020A601A4A0168914201D155
:10183000012121E0174A1432914201D110211BE00D
:10184000144A2832914201D1891515E0114A3C32DF
:10185000914201D189140FE00E4A5032914202D1D7
:101860004FF4803108E00B4A6432914202D14FF4C8
:10187000801101E04FF08071064A083A5160012161
:1018800080F82110002180F82010416B01B18847B9
:10189000204610BD080002402DE9F84FDFF8B8914E
:1018A000002409F1040A0AF1040B23460F270BF167
:1018B000040EC9E00125A5402A40AA427DD1674E09
:1018C000D1F804C0ACEB0608B44532D014DCBCF14E
:1018D000030F3AD009DCBCF1000F2AD0BCF1010F94
:1018E0001CD0BCF1020F31D11DE0BCF1110F17D09B
:1018F000BCF1120F2AD119E0B8F5881F19D006DC07
:10190000B8F5803F15D0B8F5801F1FD111E0B8F5AC
:10191000001F0ED0B8F5041F18D10AE0CB6815E0FF
:10192000CB681B1D12E0CB6808330FE0CB680C338B
:101930000CE08B682BB1012B4FF0080303D04561FD
:1019400004E0042302E0056100E00023FF2A01D83F
:10195000064601E000F104064FEA840501D9A5F12D
:101960002005D6F8008007FA05FC28EA0C0803FADF
:1019700005F548EA0508C6F800804D68ED0062D517
:10198000374DAE6946F00106AE61AD6924F003063D
:1019900005F001050095334D06EB050CDCF8085009
:1019A000A607360F07FA06F825EA0805DFF8B8801B
:1019B000404503D14FF0000817E044E0DFF8AC8069
:1019C000404502D14FF001080FE0DFF8A480404508
:1019D00002D14FF0020808E0DFF89880404502D1BC
:1019E0004FF0030801E04FF0040808FA06F848EA4F
:1019F0000508CCF808804D68D9F80060ED034D4625
:101A000001D5164300E096432E604D68DAF8006079
:101A1000AD03554601D5164300E096432E604D6850
:101A2000DBF80060ED025D4601D5164300E0964309
:101A30002E604D68DEF80060AD02754601D5164394
:101A400000E096432E60641C0D682A46E5407FF452
:101A500031AFBDE8F88F0000000401400000111014
:101A6000001002400000014000080140000C01404D
:101A700000100140001401400148806870470000D8
:101A80000C00002002488168027811448160704790
:101A90000C000020074810B5016841F010010160FA
:101AA000032000F07BF80F2000F006F800F024F887
:101AB000002010BD0020024070B50D4D04464FF4CB
:101AC0007A712878B1FBF0F00A490968B1FBF0F0AF
:101AD00000F068FB48B9102C07D200222146501EA6
:101AE00000F03CF800206C6070BD012070BD00006B
:101AF0000C000020180000200F4808B5816941F053
:101B000001018161816901F001010091C16941F028
:101B10008051C161C069002200F0805000900F2107
:101B2000901E00F01BF80548416821F0E06141F08B
:101B30000071416008BD000000100240000001403B
:101B4000002809DB00F01F020121914040098000BC
:101B500000F1E020C0F8001170470000F0B40E4B17
:101B60001B680C46C3F30223C3F10705042D00D9FB
:101B70000425191D072901D2002300E0DB1E0126E0
:101B800006FA05F1491E214099409E40761E1640F6
:101B90003143F0BC00F0F1BE0CED00E0064900F06E
:101BA000070208684FF6FF03184040EA0220034A84
:101BB00010430860704700000CED00E00000FA05DB
:101BC0002DE9F84305460078354CC00754D0E0694C
:101BD0000026C00008D4E06940F08050E061E06970
:101BE000012600F0805000902E480168C90512D4EB
:101BF0000168804641F480710160FFF73DFF0746B0
:101C000005E000BFFFF738FFC01B642823D8D8F8D1
:101C10000000C005F6D5206A10F4407021D0A988D4
:101C200001F4407181421CD0206A1F49012220F436
:101C300040700A6000220A602062C00711D0FFF7DE
:101C40001BFF074641F2883808E000BFFFF714FF8A
:101C5000C11B414502D90320BDE8F883206A8007F3
:101C6000F4D5206A696820F44070084320621EB1F0
:101C7000E06920F08050E0612878800705D5606831
:101C8000A96820F44040084360602878C00605D564
:101C90006068E96820F48000084360600020DBE7AA
:101CA0000010024000700040400442422DE9F0471D
:101CB0000F46050061D0434E306800F00700B8427F
:101CC00009D2306820F0070038433060306800F0F7
:101CD0000700B84251D128683B4C810712D5400714
:101CE00003D5606840F4E06060602878000703D5A1
:101CF000606840F4605060606068A96820F0F0009F
:101D0000084360602878C00728D06868012810D090
:101D10002168022810D0890700292EDA616821F095
:101D2000030101436160FFF7A7FE804641F2883955
:101D30000DE021688903EFE78901EDE7FFF79CFEDD
:101D4000A0EB0801494502D90320BDE8F08760688F
:101D5000696800F00C00B0EB810FEFD1306800F043
:101D60000700B8420BD9306820F0070038433060D4
:101D7000306800F00700B84201D00120E5E728787C
:101D8000400705D56068E96820F4E06008436060BA
:101D90002878000706D56068296920F4605040EA79
:101DA000C100606000F038F86168084AC1F30311AF
:101DB000515CC8400649086006480068FFF77CFE91
:101DC0000020C2E70020024000100240B84900088D
:101DD00018000020100000200448054900684968E8
:101DE000044AC1F30221515CC8407047180000202A
:101DF00000100240C84900080448054900684968C5
:101E0000044AC1F3C221515CC84070471800002049
:101E100000100240C849000812A185B00FC98DE822
:101E20000F0014A0144A006804905168134801F090
:101E30000C03042B10D0082B0ED1C1F38343C9032C
:101E40001DF803000AD5516804AAC1F34041515C52
:101E50000A4A5043B0FBF1F005B0704708494843C7
:101E6000FAE7000002030405060708090A0B0C0D37
:101E70000E0F1010010200000010024000127A0044
:101E800000093D002DE9F84F040070D02078C04DC6
:101E9000C00749D06868C0F38100012807D068688E
:101EA000C0F38100022809D16868C00306D52868FC
:101EB000800339D560680028E7D035E06068B0F568
:101EC000803F0BD010B1B0F5A02F11D0286820F4BE
:101ED00080302860286820F4802002E0286840F4E0
:101EE00080302860606890B1FFF7C6FD06460AE0C2
:101EF000286840F480202860F0E700BFFFF7BCFDB1
:101F0000801B642873D828688003F7D50CE0FFF79E
:101F1000B3FD064605E000BFFFF7AEFD801B642859
:101F2000F0D828688003F7D420789A4E80074FF0C5
:101F300001094FF0000839D5686810F00C0F07D080
:101F40006868C0F38100022809D16868C00306D41C
:101F50002868800714D52069012808D110E020697D
:101F6000B0B1C6F80090FFF787FD074605E00AE12B
:101F7000FFF782FDC01B0228C4D828688007F7D568
:101F80002868616920F0F80040EAC10028600DE08F
:101F9000C6F80080FFF770FD074604E0FFF76CFD10
:101FA000C01B022823D828688007F7D420780007B0
:101FB0002CD57948A169D9B1C0F80090FFF75CFD34
:101FC000074604E0FFF758FDC01B02280FD8686AD7
:101FD0008007F7D571484FF4FA510068B0FBF1F073
:101FE000009000BF0098411E0091FAD20EE080E000
:101FF000C0F80080FFF740FD074604E0FFF73CFD16
:10200000C01B022875D8686A8007F7D4207840077B
:1020100060D5E8690027C00008D4E86940F0805026
:10202000E861E869012700F0805000905C48016891
:10203000C90513D40168834641F480710160FFF73C
:102040001BFD824606E000BFFFF716FDA0EB0A006D
:1020500064284ED8DBF80000C005F5D5E0680128FB
:102060000AD008B1052813D0286A20F001002862A0
:10207000286A20F0040002E0286A40F0010028628B
:10208000E06841F2883B98B1FFF7F6FC82460BE02E
:10209000286A40F004002862EEE700BFFFF7ECFC7E
:1020A000A0EB0A0159455AD8286A8007F6D50CE0FA
:1020B000FFF7E2FC824605E0FFF7DEFCA0EB0A0139
:1020C00059454CD8286A8007F6D41FB1E86920F03A
:1020D0008050E861E06988B36968C1F38101022931
:1020E00044D00228C6F8608004D0FFF7C5FC04463F
:1020F00038E034E0FFF7C0FC074604E0FFF7BCFC23
:10210000C01B02282BD828688001F7D4206AB0F5BC
:10211000803F05D16868A16820F4003008436860FA
:10212000D4E908010843696821F474110843686020
:10213000C6F86090FFF7A0FC044606E025E000BF6B
:10214000FFF79AFC001B022809D828688001F7D500
:102150001BE000BFFFF790FC001B022802D9032000
:10216000BDE8F88F28688001F4D40EE00128F7D08C
:102170006868226A00F48031914204D1616A00F4F7
:102180007010884201D00120EAE70020E8E7000053
:102190000010024000004242800442421800002029
:1021A0000070004010B5401EB0F1807F01D30120C7
:1021B00010BD4FF0E02460610F21601700F0DDFBDF
:1021C0000020A06107202061002010BD70477047EB
:1021D000F8B5026804461068D168536910F00F0F13
:1021E0004FF0000553D003F0010601F49077374318
:1021F0005FD0C20705D0CA0503D5226C42F00102A8
:102200002264420705D5DA0703D0226C42F00202AD
:102210002264820705D5DA0703D0226C42F004025B
:102220002264020707D501F02002324303D0226C5A
:1022300042F008022264226C002A34D0800604D5C1
:10224000880602D5204600F094FA20684069216C87
:10225000C0F38010090700D430B3204600F071FAB3
:102260002068416949061BD5416921F0400141615F
:10227000A06BA8B158494163A06BFFF7C1FA0028D1
:1022800011D0A06B416B01B0BDE8F0400847830658
:102290000FD58B060DD52046BDE8F84000F069BA91
:1022A0002046FFF794FFF8BD2046FFF790FF256416
:1022B000F8BD266B2023012E52D1C60650D5CE067E
:1022C0004ED5106850680090506940062AD5A16B21
:1022D000086840680004000CEAD0A68D8642E7D961
:1022E000E0858869202818D0D06820F48070D060FC
:1022F0002068416921F0010141612068416921F0B4
:102300004001416184F83E3025632068C16821F0B6
:102310001001C160A06BFFF74FFAA08DE18D401A4C
:1023200081B219E0A08DE18D401A81B2E08D0028C4
:10233000BED00029BCD0D06820F49070D060206856
:10234000426922F00102426184F83E302563206830
:10235000C26822F01002C2602046FFF737FFF8BDC6
:1023600005062BD50D0629D594F83D002128F6D178
:10237000A068B0F5805F01D12069B0B1206A411C2E
:102380002162216800784860E08C401E0004000C47
:10239000E084E4D12068C16821F08001C160206838
:1023A000C16841F04001C160F8BD206A0088C0F3F7
:1023B00008005060206A801C2062E5E74006F3D5E3
:1023C0004806F1D5D168204621F04001D16084F85B
:1023D0003D3000F0D0F8F8BD3327000870B5040098
:1023E00004D094F83D00002510B106E0012070BD36
:1023F00084F83C50204600F023F8242084F83D0067
:102400002068C16821F40051C160204600F00CFA38
:102410002068016921F4904101612068416921F03F
:102420002A0141612068C16841F40051C1602564FE
:10243000202084F83D0084F83E00002070BD00009C
:1024400030B585B000240094019402940394006890
:10245000184988422BD11848C16941F40031C16143
:10246000C16901F400310491816941F00401816185
:102470008069124D00F004000490042000900220B6
:1024800001900320039069462846FFF705FA0820CB
:10249000CDE90004694628460294FFF7FDF90022C1
:1024A00005212620FFF75AFB2620FFF749FB05B040
:1024B00030BD000000440040001002400008014010
:1024C000704700002DE9F843044690F83D001F4690
:1024D00016460D4620284CD1C5B1BEB194F83C003B
:1024E000012846D0012084F83C004FF00008C4F8D1
:1024F0004080212084F83D00FFF7BEFAA684814683
:10250000E684A068B0F5805F03D004E00120BDE858
:10251000F883206928B12E465FF0000584F83C80DE
:102520000EE00026FAE78021204600F0D9F9A0B994
:10253000AEB116F8010B21684860E08C401EE084C3
:10254000E08C4B464FF0000200970028EBD14FF093
:102550004001204600F0C4F930B10320D7E735F838
:10256000020BC0F30800E6E7202084F83D000020BD
:10257000CDE70220CBE77047FEE700003EB5002420
:1025800010480094019402940D4984600160047322
:102590000475012505614FF460214460C161FEF7B7
:1025A000D7FF08B172B6FEE70095CDE90154694640
:1025B0000448FEF74BFF002801D072B6FEE73EBD8F
:1025C0000024014094000020FEE7FEE70024254699
:1025D0001748FFF777F81648FEF7B6FF054414488A
:1025E000FFF7D0F83220641C00F024FA0A2CEFDB4D
:1025F000284602F05DF90F4902F098F802F06AF8F7
:102600004FF066320C4B01F067FF00220B4B01F0DC
:102610000BFE02460B460020094901F005FE01F0C1
:10262000D1FD084908604FF47A7000F003FACDE755
:10263000940000200000204166660A4000FEAF4082
:1026400000406F400000002088B00E4E00246D4610
:1026500040F6B83700202C54401C1E28FBDB3068A5
:1026600002F038F802460B4607A16846FDF704FE63
:1026700064231D2269460948FFF724FF384600F00D
:10268000D9F9E7E700000020616E682073616E678A
:102690003A2566206C75780A00000000C40000200E
:1026A00010B5FFF7EFF901F0C1FB012803D0BDE839
:1026B000104001F0F1B810BD30B593B02821684644
:1026C000FDF76FFE14210AA8FDF76BFE002501201F
:1026D0000F9510951195010412958DE82300049033
:1026E0004FF4E010CDE90810022407946846FFF784
:1026F000C9FB08B172B6FEE70AA90F2081E83100D4
:102700004FF48060CDE90D0502210AA8FFF7CEFA4B
:1027100008B172B6FEE74FF4004011900F940FA875
:10272000FFF74EFA002801D072B6FEE713B030BDB5
:10273000704710B5406A0021C185C184FFF747FD8D
:1027400010BD0168CA6822F49072CA6001684A69C3
:1027500022F001024A61016B012904D10168CA68B3
:1027600022F01002CA60202180F83E10002101638F
:10277000704708B590F83E10222901D0022008BD0C
:1027800082684FF480539A4201D1016921B1816A74
:102790009A421BD04AB10AE00268816A5268C2F3C9
:1027A00008020A80816A891C08E0026972B1026825
:1027B000526802F07F020A70816A491C8162C18DF1
:1027C000491E0904090CC18503D019E0026852684A
:1027D000F1E70168CA6822F02002CA600168CA688D
:1027E00022F48072CA6001684A6922F001024A61DB
:1027F000202180F83E10016B012903D0FFF760FE15
:10280000002008BD002101630168CA6822F010029F
:10281000CA6001680A68D20602D50A684968009150
:10282000818DFFF7D3FCEBE770B5044600680169C2
:10283000E26821F44051114301612169A068084315
:10284000616908432168CA6841F20C639A430243F4
:10285000CA6020684169A26921F440711143416155
:102860001E492068884202D1FFF7C6FA01E0FFF74F
:10287000B3FA00EBC00101EB001260686421800034
:10288000B2FBF0F3B3FBF1F36FF018067343B2FB46
:10289000F0F5B2FBF0F605EB8305322303EB0515EB
:1028A000B5FBF1F5B6FBF1F605F0F00505EB061505
:1028B000B2FBF0F6B2FBF0F0B0FBF1F06FF01802F3
:1028C000504306EB800003EB0010B0FBF1F02168F1
:1028D00000F00F002844886070BD000000380140FF
:1028E0002DE9F041984617460E460446069D1DE028
:1028F000681C1BD02DB1FFF7BFF8A0EB0800A84261
:1029000014D92068C16821F4D071C1602068416980
:1029100021F001014161202084F83D0084F83E004F
:10292000002084F83C000320BDE8F08120680068A6
:1029300036EA000004D00020B842D9D00020F3E7E6
:102940000120F9E70148FFF743BC0000C400002064
:10295000FEE7490050EAC12018BF04204A0D18BF05
:1029600040F0010040F2FF72B2EB515F08BF40F04F
:102970000200012808BF052070470907090E00283A
:1029800004DB00F1E02080F80014704700F00F0035
:1029900000F1E02080F8141D7047000008B5FFF733
:1029A00079F8FFF789FE1C48816941F020018161B7
:1029B000816901F020010091816941F00401816188
:1029C000806900F004000090FFF7D8FD1448134917
:1029D0000C2201604FF41651416000218160C160FA
:1029E000C0E904128161C161FFF7F8FC08B172B659
:1029F000FEE700F039F80B4A00210B4800F070F8B0
:102A00000A4C084A002160602432094800F068F846
:102A1000A06000F045F8FEE70010024000440040CE
:102A2000C400002070490008CD25000800000020E7
:102A30004926000810B5EFF3058149B9EFF310817D
:102A400031B908490968022905D1EFF3118111B1A3
:102A50006FF0050403E0002408B100F0E3FD204618
:102A600010BD00006C000020EFF3058058B9EFF3B3
:102A7000108040B909490868022801D030B109E046
:102A8000EFF3118030B16FF005007047012008604E
:102A9000002070474FF0FF30704700006C000020AE
:102AA00010B5EFF3058060B9EFF3108048B90B491A
:102AB0000868022802D0012806D00BE0EFF311804D
:102AC00040B16FF0050010BD0220086000F012FE5A
:102AD000002010BD4FF0FF3010BD00006C00002042
:102AE000F0B585B04FEA01034FF00004EFF3058124
:102AF0000394A1BBEFF3108189BB21490968022926
:102B000002D1EFF3118151BB48B3802618218DF813
:102B1000104004AD42B3176807B13D4697691FB135
:102B200039467F1E382F02D21779FF0702D00020C6
:102B300005B0F0BD576907B1BE08D2F808C0BCF1B6
:102B4000000F0DD0D4685C2C18D312693AB137B19C
:102B50008DE806103246294601F03DF903900DE05C
:102B6000D7685FB912694AB903AACDE90012B2B2B7
:102B7000294601F003F9012800D003940398D7E710
:102B80006C0000202DE9F041134C0F4605466669A4
:102B90002068001D00F016FC681C07D137B12168C1
:102BA000BDE8F0410D48091D00F05CBC20683544CB
:102BB000B5424560216805D2A068BDE8F041091D15
:102BC00000F038BC6068091D00F034FC206B8542C1
:102BD00000D22563BDE8F0811C000020F80500202C
:102BE0002DE9F041054600F049FC2D4C2069401CC0
:102BF000206120682B4F10B1E06930B32BE02560D5
:102C00002069012827D1002606EB860007EB80000B
:102C100000F002FC761C382EF6D3234800F0FCFBB3
:102C20002148143000F0F8FB1F48283000F0F4FB76
:102C30001D483C3000F0F0FB1B48503000F0ECFB2E
:102C4000194860601430A06005E02068E96AC06A35
:102C5000884200D82560E06A401CE0626864E86A47
:102C6000A169884200D9A06100EB800007EB8000D9
:102C7000291D00F0F7FB00F021FCE06900280CD0D2
:102C80002068E96AC06A884207D208494FF080503C
:102C90000860BFF34F8FBFF36F8FBDE8F081000076
:102CA0001C00002048010020A805002004ED00E0E1
:102CB00038B500F0E3FB104CA068C8B90F4800F02D
:102CC000ABFB0E48143000F0A7FB0C48206014301A
:102CD00060600A4B00202833009003F1500210215D
:102CE0000A2000F0EFFDA06010B105A100F064FC27
:102CF000BDE8384000F0E2BB580000200C06002080
:102D0000546D72510000000030B4026C0B46002A72
:102D10000BD0C1681144C1604468A14201D301686D
:102D2000C16030BC1846FDF7EFBA30BC70472DE9E2
:102D3000F041856B174604460026026C82B1C7B18C
:102D4000E068FDF7E1FAE168206C091AE1602268A9
:102D5000914202D26168081AE060022F16D017E093
:102D60002068A8B9606801F0D9F8064600206060C4
:102D70000EE0A068FDF7C8FA216CA0680844A060C6
:102D80006168884204D32068A06001E005B16D1E2F
:102D90006D1CA5633046BDE8F08110B5044690F87F
:102DA000590058B101280CD002280FD0502080F3D0
:102DB0001188BFF34F8FBFF36F8FFEE7206B00F0DA
:102DC00091FB2046BDE8104000F08CBB10BD000018
:102DD00010484FF44061420706D0C01D0D4920F055
:102DE0000700411AC1F540610B4A00230144C2E9C2
:102DF00000030839103A21F0070111604B600B60A5
:102E00000B1AC0E9001393604FF000405360D0608C
:102E100070470000DC0D002080000020144E154C8F
:102E2000A6F29C474FF08058DFF84C9012E000BFAC
:102E300000F024FBF068C568281D00F0C3FA206983
:102E4000401E2061E068401EE06000F037FB28462D
:102E5000FFF7A3FFE0680028EAD138680128F9D914
:102E6000C9F80080BFF34F8FBFF36F8FF2E7000008
:102E7000E40500201C00002004ED00E070B51D46B4
:102E8000049C51B1C4F80020C4E90F01012120467F
:102E900000F04CFD84F84C5070BD2460F4E72DE93F
:102EA000F0470E46DDE909841746824691009946AF
:102EB000089DA522206BFDF76CFA6FF00301206BD3
:102EC00001EB8701084420F00707780707D050205E
:102ED00080F31188BFF34F8FBFF36F8FFEE7221887
:102EE000315C82F83410315C11B1401C1028F6D3EB
:102EF000002684F84360382D00D33725E562C4E905
:102F00001356201D00F093FA04F1180000F08FFA18
:102F10002461C5F138006462A061666584F8586078
:102F20004A465146384600F03BFA2060B8F1000F9F
:102F300001D0C8F80040BDE8F087000030B5114965
:102F400000E011460A688242FBD34B685C18844259
:102F500003D1406818444860084643681C189442EE
:102F600009D1084C103C2468A24209D052681A4486
:102F700042600A6812680260814200D0086030BD79
:102F80000460F9E78000002070B5002441600B4D1B
:102F90000061914206D8D11A8269914206D2011D80
:102FA000686807E09A4203D2994201D3012403E002
:102FB000011D286800F03EFA204670BD5800002030
:102FC00010B5044600F05AFAA06B28B15FF0000477
:102FD00000F074FA204610BD0124F9E730B589B03D
:102FE000304D55E00498002806DADDE90601059A1F
:102FF0009047049800284BDB069C606910B1201DA7
:1030000000F0E0F902A800F0B9F8024604980A2896
:103010003ED2DFE800F00505053D263705053D26D3
:103020000598A169034601442046FFF7ADFF00B3B0
:10303000616A20468847E069012829D10020009074
:103040000598A169002342181946204601F070F83E
:1030500078B9502080F31188BFF34F8FBFF36F8F83
:10306000FEE70598A06128B1811813462046FFF7B6
:103070008BFF0DE0502080F31188BFF34F8FBFF31B
:103080006F8FFEE794F82C0010B9204600F02AFA62
:10309000002204A9A86800F09BFD0028A2D109B075
:1030A00030BD0000580000202DE9FC410F460546C8
:1030B00000F064FB01A800F061F80446019818B123
:1030C00000F0A4FFBDE8FC81224EAFB1706800683B
:1030D000A8B30027291B3A46B06800F081FA00F037
:1030E00095FF0028EED11C494FF080500860BFF3D7
:1030F0004F8FBFF36F8FE5E7A542EBD800F086FF57
:1031000030682746C068C468201D00F05BF9E0699C
:10311000012810D1A0692B4641193A462046FFF7F5
:1031200033FF40B100200346014600902A46204666
:1031300000F0FEFF20B1616A20468847C2E707E041
:10314000502080F31188BFF34F8FBFF36F8FFEE7DE
:103150000127BFE75800002004ED00E00648416861
:10316000096829B14168C968C9684968016370473D
:103170004FF0FF31FAE700001C00002070B5054653
:1031800000F062FE064E04463069844203D200F02D
:1031900009F8012000E0002028602046346170BD5D
:1031A00058000020F8B5194D1FE0C068C4680668D3
:1031B000201D00F007F9616A20468847E069012870
:1031C00013D1A0693044B04206D924616060211D4A
:1031D000286800F02FF908E000200346014600901F
:1031E0003246204600F0A4FF38B128680168002963
:1031F000DBD16968C5E90010F8BD502080F3118863
:10320000BFF34F8FBFF36F8FFEE700005800002021
:1032100008484068401C4FF0500080F3118804D0EB
:10322000BFF34F8FBFF36F8FFEE7BFF34F8FBFF337
:103230006F8FFEE788000020074C2068016841B1CD
:10324000C0680021D0F80000FFF72EFFFFF7C6FE90
:10325000F3E701210020F7E7580000202DE9F041B5
:10326000044600F00BF994F9455004F1240609E0F6
:10327000606A48B1304600F091FE08B100F000FAF3
:103280006D1E6DB2002DF3DC4FF0FF3684F8456003
:1032900000F014F900F0F2F894F9445004F110072A
:1032A00009E0206948B1384600F078FE08B100F026
:1032B000E7F96D1E6DB2002DF3DC84F84460BDE8C3
:1032C000F04100F0FBB800002DE9F0410546002771
:1032D00000F054FA314E306808B9FFF779FDF06814
:1032E00005424BD1C5B3083568070ED005F007007D
:1032F000C0F108000544680707D0502080F311880A
:10330000BFF34F8FBFF36F8FFEE72DB37068854219
:1033100034D82248103001460C6801E020460C46A3
:103320006168A94202D221680029F7D131688C4234
:1033300024D007682168016060680837411B1029A4
:103340000FD96019420708D0502080F31188BFF3CD
:103350004F8FBFF36F8FFEE710E041606560FFF7AE
:10336000EDFD61687068401A7060B268904200D2EA
:10337000B060F06801430020C4E9000100F046FE9F
:10338000780707D0502080F31188BFF34F8FBFF329
:103390006F8FFEE73846BDE8F08100007000002026
:1033A00010B5031F4FF080741C601B1F21F001013A
:1033B0001960191F024B0B60143940380A6010BDA8
:1033C00011320008D0E9013201699A60D0E9012385
:1033D0005A604A68824201D182684A6000220261D2
:1033E0000868401E0860086870470000034B0360CF
:1033F00003F15C0008608020106070472407002003
:10340000044B036003F15C0008604FF480701060AF
:10341000704700008009002000F108014FF0FF32E2
:10342000C0E90112C1600161002101607047002103
:103430000161704730B50B685A1C02D000F10802D8
:1034400002E0026904E02246546825689D42FAD9E8
:1034500053684B6099608A60516008610168491C3B
:10346000016030BD42684A6093688B609368596020
:10347000916008610168491C01607047502080F329
:103480001188BFF34F8FBFF36F8F0A494868401C04
:10349000486001280CD10848006810F0FF0F07D0E1
:1034A000502080F31188BFF34F8FBFF36F8FFEE77B
:1034B000704700008800002004ED00E008494868DB
:1034C00028B1401E486001D180F311887047502018
:1034D00080F31188BFF34F8FBFF36F8FFEE70000BB
:1034E0008800002070B5002827D0144DA0F10804F2
:1034F0006168E868014207D1502080F31188BFF36A
:103500004F8FBFF36F8FFEE722683AB1502080F3F0
:103510001188BFF34F8FBFF36F8FFEE78143616068
:1035200000F02CF960686968084468602046FFF77D
:1035300005FDBDE8704000F069BD70BD7000002061
:103540004FF0E02000210161816105494FF47A725A
:103550000968B1FBF2F1491E416107210161704721
:103560001800002010B5FCF763FE114910280ED397
:1035700000F1E02090F8F0030A78904207D2502042
:1035800080F31188BFF34F8FBFF36F8FFEE70948B9
:103590000068896800F4E060884207D9502080F311
:1035A0001188BFF34F8FBFF36F8FFEE710BD000090
:1035B000880000200CED00E010B5084B002200BF91
:1035C00053F832401CB1521C082AF9D310BD43F8FD
:1035D000321003EBC201486010BD0000080100205A
:1035E00070B515460E460446FFF748FF94F944109F
:1035F0000020491C01D184F8440094F94510491C6D
:1036000001D184F84500FFF759FFA06B28B92A467D
:10361000314604F1240000F051F82046BDE8704026
:10362000FFF71CBE10B5020014D00F48806B38B1F4
:10363000502080F31188BFF34F8FBFF36F8FFEE7E9
:1036400000F09CF800211046FFF79CFA00F0DEFC29
:10365000002807D105494FF080500860BFF34F8F15
:10366000BFF36F8F10BD00001C00002004ED00E0D0
:1036700002498A6A02604969416070471C00002063
:1036800001490120486270471C00002010B50C461B
:1036900050B1094909681831FFF7CCFE2046BDE852
:1036A00010400121FFF76EBA502080F31188BFF35C
:1036B0004F8FBFF36F8FFEE71C00002070B51446DC
:1036C0000D4668B10A4909681831FFF7CBFE0CB105
:1036D0004FF0FF3521462846BDE87040FFF752BA4B
:1036E000502080F31188BFF34F8FBFF36F8FFEE739
:1036F0001C00002030B587B00024039405AA04A95B
:1037000003A80494FFF772FEDDE903010094CDE9FC
:103710000110002315A11748059A00F05CFB164D17
:10372000002868631FD000F0D3FC012809D0401C9A
:1037300019D1502080F31188BFF34F8FBFF36F8FE3
:10374000FEE7502080F31188BFF34F8FBFF36F8FD8
:103750004FF0FF3028630120E8616C6107B0BDE8DD
:10376000304000F045B807B030BD000049444C453A
:10377000000000001D2E00081C0000200248816B84
:10378000491C8163704700001C000020164810B5DA
:10379000816B11B10121416210BD0021416281693B
:1037A000124A01E0B9B1491E01EB810352F82330FE
:1037B000002BF7D001EB810302EB830202F1080436
:1037C00053685B685360A34201D15B685360DA6859
:1037D0000260816110BD502080F31188BFF34F8FCC
:1037E000BFF36F8FFEE700001C000020480100209F
:1037F0001CB5264908780190FF20087008788DF8DC
:1038000000009DF800009DF8002000F0F0009042BC
:1038100007D0502080F31188BFF34F8FBFF36F8F15
:10382000FEE79DF800001A4B00F0500018700720CA
:10383000986005E09DF8002052008DF80020401EA1
:103840009DF800201206F5D49860032807D0502078
:1038500080F31188BFF34F8FBFF36F8FFEE74FF4F4
:1038600040709860019808700A48016841F470013E
:103870000160016841F070410160FFF761FE0020C6
:103880005860FCF79FFC00201CBD000000E400E035
:103890008800002020ED00E010B5502080F3118852
:1038A000BFF34F8FBFF36F8F00F0D4FA18B1044904
:1038B0004FF080500860002080F3118810BD000098
:1038C00004ED00E038B5049D18B153B1CAB181B11F
:1038D00020E0502080F31188BFF34F8FBFF36F8F2C
:1038E000FEE7502080F31188BFF34F8FBFF36F8F37
:1038F000FEE7502080F31188BFF34F8FBFF36F8F27
:10390000FEE739B1502080F31188BFF34F8FBFF32A
:103910006F8FFEE750241C46012384F846302B4667
:103920000094FFF7ABFA204638BD000070B50D4695
:10393000040025D0FFF7A2FDD4E90F20216802FB87
:10394000001161600021A1632168A1600A46D4E9E9
:103950000F01401E00FB0121E16021464FF0FF30C6
:1039600001F8440F487004F110008DB1FFF754FDC9
:1039700004F12400FFF750FDFFF7A0FD012070BD0A
:10398000502080F31188BFF34F8FBFF36F8FFEE796
:1039900021690029F0D000F001FB0028ECD0044997
:1039A0004FF080500860BFF34F8FBFF36F8FE3E796
:1039B00004ED00E02DE9FF4782B01D468A464FF036
:1039C0000008040003D0BAF1000F08D011E0502025
:1039D00080F31188BFF34F8FBFF36F8FFEE7206C2A
:1039E00038B1502080F31188BFF34F8FBFF36F8F32
:1039F000FEE7022D0AD1E06B012807D0502080F3AA
:103A00001188BFF34F8FBFF36F8FFEE700F00EFA00
:103A10003F4F4FF000094FF0805648B9049838B135
:103A2000502080F31188BFF34F8FBFF36F8FFEE7F5
:103A3000FFF724FDA06BE16B884207D3022D05D070
:103A40000498D0B1B8F1000F1AD01EE02A465146B2
:103A50002046FFF76CF9616A19B104F1240000F007
:103A60009DFA20B13E60BFF34F8FBFF36F8FFFF71A
:103A700025FD012006B0BDE8F087FFF71FFD22E01D
:103A80006846FFF7F5FD4FF00108FFF717FDFFF758
:103A900075FEFFF7F3FC94F94400401C01D184F853
:103AA000449094F94500401C01D184F84590FFF7FB
:103AB00005FD04A9684600F027F930B12046FFF75C
:103AC000CDFB00F0A3FA0020D4E7FFF7D7FCA06BF2
:103AD000E16B884213D1FFF7F1FC04F11000049967
:103AE000FFF7D4FD2046FFF7B9FB00F08FFA00285E
:103AF0009ED13E60BFF34F8FBFF36F8F98E7FFF704
:103B0000DDFC2046FFF7AAFB00F080FA90E70000FA
:103B100004ED00E02DE9F0471F4690468946040079
:103B200003D0B9F1000F08D011E0502080F31188C4
:103B3000BFF34F8FBFF36F8FFEE7206C38B150207B
:103B400080F31188BFF34F8FBFF36F8FFEE7022F13
:103B50000AD1E06B012807D0502080F31188BFF311
:103B60004F8FBFF36F8FFEE7FFF7FCFC5020EFF3A2
:103B7000118680F31188BFF34F8FBFF36F8FA06B57
:103B8000E16B884206D3022F04D0002086F311880F
:103B9000BDE8F08794F945503A4649462046FFF77C
:103BA000C6F8681C04D06D1C84F845500120EDE770
:103BB000606A0028FAD004F1240000F0EFF9002830
:103BC000F4D0B8F1000FF1D00121C8F80010EDE7F2
:103BD0002DE9F747002683B08A46040003D0BAF1E6
:103BE000000F08D011E0502080F31188BFF34F8FF1
:103BF000BFF36F8FFEE7206C38B1502080F311883F
:103C0000BFF34F8FBFF36F8FFEE700F00FF9DFF8C0
:103C1000F4804FF000094FF0805748B9059838B14B
:103C2000502080F31188BFF34F8FBFF36F8FFEE7F3
:103C3000FFF724FCA56BC5B151462046FFF764F899
:103C40006D1EA563206950B104F1100000F0A6F9C3
:103C500028B1C8F80070BFF34F8FBFF36F8FFFF725
:103C60002DFC012006B0BDE8F087059808B11EB113
:103C700006E0FFF723FC27E06846FFF7F9FC012682
:103C8000FFF71CFCFFF77AFDFFF7F8FB94F94400FF
:103C9000401C01D184F8449094F94500401C01D1A6
:103CA00084F84590FFF70AFC05A9684600F02CF857
:103CB000002820460AD0FFF7D1FA00F0A7F92046E5
:103CC000FFF77EF90028B3D00020CBE7FFF778F9A3
:103CD00090B104F124000599FFF7D8FC2046FFF7C6
:103CE000BDFA00F093F90028A2D1C8F80070BFF324
:103CF0004F8FBFF36F8F9BE72046FFF7AFFA00F0BF
:103D000085F995E704ED00E02DE9F0410C4605004A
:103D100011D0C4B1FFF7B2FB174B5A696E68206827
:103D2000911B471C17D02F689B6A9F4219D096425F
:103D300017D8012410E0502080F31188BFF34F8F73
:103D4000BFF36F8FFEE7502080F31188BFF34F8FD2
:103D5000BFF36F8FFEE70024FFF7B0FB2046BDE8FE
:103D6000F081884205D9401A20602846FFF780FC80
:103D7000F1E700202060DCE71C0000202DE9FF5F58
:103D80008346DDE90E87994616468A469000FFF77E
:103D90009BFA05001CD05C20FFF796FA040014D0B3
:103DA0000020256384F85900CDE90240CDE9008761
:103DB0004B46324651465846FFF771F82046FEF70B
:103DC0000FFF012004B0BDE8F09F2846FFF78AFBF3
:103DD0004FF0FF30F6E7F0B585B0DDE90B640A9DE2
:103DE000A6B1DCB15C2700972663022684F85960EF
:103DF000002604AFCDE90246CDE90057FFF74FF8A2
:103E00002046FEF7EDFE049805B0F0BD502080F38B
:103E10001188BFF34F8FBFF36F8FFEE7502080F301
:103E20001188BFF34F8FBFF36F8FFEE70548C1695D
:103E300019B1806B18B10020704701207047022033
:103E4000704700001C0000200148406970470000D6
:103E50001C0000202DE9F0412E4C0027A06B40B142
:103E6000206A401C2062606A00B101273846BDE824
:103E7000F0816669761C666113D16068006838B1AC
:103E8000502080F31188BFF34F8FBFF36F8FFEE791
:103E90006068A1686160A060A06A401CA062FFF732
:103EA0005DF9206BDFF87080864209D36068006896
:103EB00080B16068C068C568686886420DD22063BA
:103EC0002068C06A00EB800158F821000128CAD997
:103ED0000127C8E74FF0FF30F1E7281DFFF772FA1E
:103EE000A86A18B105F11800FFF76CFAE86AA16931
:103EF000884200D9A06100EB800108EB8100291DF8
:103F0000FFF7B0FAE86A2168C96A8842CED3012770
:103F1000CCE700001C0000204801002070B5040020
:103F20004FF0000133D01B4D2868844207D0502049
:103F300080F31188BFF34F8FBFF36F8FFEE7206DC3
:103F400038B1401E2065E36CE26A9A421FD040B14E
:103F50001DE0502080F31188BFF34F8FBFF36F8FA8
:103F6000FEE7201DFFF72EFAE06CE062C0F138009A
:103F7000A061E06AA969884200D9A861064900EBFE
:103F8000800001EB8000211DFFF76CFA012108463B
:103F900070BD00001C0000204801002070B5C06802
:103FA000C46854B104F118000646FFF70BFA144D2B
:103FB000A86B50B13146134815E0502080F31188AA
:103FC000BFF34F8FBFF36F8FFEE7201DFFF7FAF9A6
:103FD000E06AA969884200D9A8610B4900EB80001A
:103FE00001EB8000211DFFF73DFAE06A2968C96AEC
:103FF000884202D90120686270BD002070BD0000B7
:104000001C000020D0050020480100202DE9F047C9
:104010002C4D00242746A86B38B1FFF72FFAA86B68
:10402000401EA863A86B40B146E0502080F3118881
:10403000BFF34F8FBFF36F8FFEE72969224E012038
:10404000D1B3A6F5916980463068E0B1F068C468E4
:1040500004F11800FFF7B6F9201DFFF7B3F9E06A85
:10406000A969884200D9A86100EB800109EB8100B1
:10407000211DFFF7F7F9E06A2968C96A8842E3D38E
:10408000C5F82480E0E70CB1FFF768F82C6A4CB162
:104090004FEA0806FFF7DEFE00B16E62641EF9D13A
:1040A00000202862686A38B108490127380708608B
:1040B000BFF34F8FBFF36F8FFFF700FA3846BDE8AD
:1040C000F08700001C000020D005002004ED00E077
:1040D00010B586B0FEF7ECFD114CA068B8B1002019
:1040E0000390049005AA04A903A8FFF789F9DDE964
:1040F000032102208DE8070000230AA10B48059A3E
:10410000FFF769FEE06010B106B0012010BD50203D
:1041100080F31188BFF34F8FBFF36F8FFEE700006E
:1041200058000020546D7220537663003932000825
:104130002DE9FF411E46134602000A9D4FF0000084
:1041400016D0144CA768002F0FD0CDE900130292AF
:10415000062917DAFFF76AFE02284FF000030FD096
:1041600000226946A068FFF725FC04B0BDE8F08195
:10417000502080F31188BFF34F8FBFF36F8FFEE79E
:104180002A46EEE70023324669463846FFF7C2FC6E
:10419000EBE700005800002010B500290AD008788D
:1041A000002807D005487844FCF7D4FC002801D04B
:1041B000002010BD0248784410BD0000F608000041
:1041C000EE08000021F00042A2F16052B2F5801F1B
:1041D00001F0004328BFD2F17F6C0BD95FEA001CCD
:1041E00043EAC20242EB507018BF704728BF20F06C
:1041F00001007047B2F5801FBCBF184670474FEAF8
:10420000410C1CF5001F02D2084600F0AABB70B595
:1042100000F00CFA00000089FFF7F6BF4FF00040F5
:10422000A0F58000704700002DE9C04130B4DFF8F0
:10423000A0C23CEA111418BF3CEA131400F0EC8051
:1042400081EA03051CEA111444EAD57418BF1CEA7C
:10425000131500F0C780A4EB05044FF0004545EAB4
:10426000C12145EAC32341EA505143EA525304F1C4
:104270007F74994204F500344FEAC0204FEAC2220D
:1042800008BF904200F09C804FEA13650FF2401681
:10429000765D4FEA134506FB05F7C7F1807706FB0D
:1042A00007F74FEAD737A7FB03687642C8F580388F
:1042B000A7FB06CE38BFA8F1010807FB08E64FF0C0
:1042C000000EA6FB028CE6FB03CEDCF1000CCEF167
:1042D000004E38BFAEF1010EA6FB0C584FF00007A0
:1042E0004FF00005E6FB0E87A1FB08C6A0FB07CE3A
:1042F00016EB0E0645F10005E1FB076515F1E04EF2
:104300007EBFA4F580345FEA46066D4116F1800752
:1043100045F100054FEA17274FEA066647EA0567A9
:10432000A6F1DE46B6F1805F4FEA15251FD9384663
:1043300024F0010C05EBC471BCF1FE6F01EB0C1114
:1043400002D8F0BCBDE8008124425CBF01F5801EAC
:104350009EEAC47F02D4F0BCBDE80081244238D478
:10436000F0BCA1F1C041BDE8004100F0ADB94FEA99
:10437000D22242EA43524FEAD323A7FB02864FEAF6
:10438000D02040EA415007FB03661EEA0E0F4FEAB9
:10439000D12105FB026658BFA6EB0056B6EB0056CE
:1043A0004FEA520E4EEAC37E18EB0E0E56EB530E3A
:1043B000BDD518EB02085E417F1C55F10005B6E73C
:1043C0004FF480154FF000074FF000064FF0000843
:1043D000ADE7F0BC4FF0000001F1C04101F0004139
:1043E000BDE8008111EA0C1F0CEA131500D00CE0A7
:1043F00013EA0C1F00F025804FF00000F0BC81EAAA
:10440000030101F00041BDE80081F0BCBDE80041BE
:1044100081EA030100F058B9F0BCBDE8004170B575
:1044200000F004F9097EFC3E00F007B881EA0301C0
:104430004FF0000001F00041704781EA030100F0F5
:1044400043B9F0BCBDE800414FF00000214970477E
:10445000FFFDFBF9F7F5F4F2F0EEEDEBE9E8E6E449
:10446000E3E1E0DEDDDBDAD8D7D5D4D3D1D0CFCDD0
:10447000CCCBCAC8C7C6C5C4C2C1C0BFBEBDBCBB09
:10448000BAB9B8B7B6B5B4B3B2B1B0AFAEADACAB04
:10449000AAA9A8A8A7A6A5A4A3A3A2A1A09F9F9EDE
:1044A0009D9C9C9B9A999998979796959594939390
:1044B000929191908F8F8E8E8D8C8C8B8B8A898927
:1044C00088888787868585848483838282818180AA
:1044D0000000FF070000F87FDFF848C170B51CEA54
:1044E000111E1EBF1CEA13159EEA0C0F95EA0C0F55
:1044F00000F06F8081EA030423EA4C134EEAD47E75
:1045000021EA4C1141F4801143F48013AE44A1FB25
:10451000024CA0FB0365AEF17F7E361955EB0C050E
:10452000A1FB034C4CF10003A0FB021C16EB0C0694
:10453000654153F10003094218BF46F0010613F428
:10454000007F0BD14FEA03314FEA0530340341EAD3
:10455000155140EA16506FF003020AE04FEAC321FA
:104560004FEAC520F40241EA555140EA56506FF037
:10457000020202EB2E4201EB025585EACE710AD00F
:104580005FEA440C18BF24F0004450F1000041F1F0
:10459000000120EAD47040F2FE7C624500D270BD7A
:1045A000A84214BF4FF080444FF04044002E08BF93
:1045B0000024BEF1806FA8BFA1F1C041BDE87040EA
:1045C00080F282804FF0000001F1C04101F0004113
:1045D00070479EEA0C0F0CEA131518BF95EA0C0FF2
:1045E00006D04FF0000081EA030E0EF0004170BDCE
:1045F00000F01CF88900013E00F007B800F009B88F
:104600004FEA430C5FEA5C5C08D081EA030100F0EA
:104610005BB84FEA410C5FEA5C5CF6D14FF00000FA
:10462000014970470000FF070000F87F0EF1020EFD
:104630002EF0030E5EF8046B364205D4012A43EBDC
:10464000030515F5001F12D8012841EB010C1CF5DC
:10465000001F0CD80ED14FEAD17C15F5001F0CEBD2
:104660004C0C0CF1020C08BF4CEBD37C04E04FF077
:10467000080C01E04FEAD37C0CEB4C0526FA05F65A
:1046800006F00706B6F1040C06D20EEB860CBDE868
:1046900070404CF0010C6047DFE80CF0090B02029F
:1046A0004FF000414FF00000A1F5002170BD194608
:1046B0001046012851EB010418BFD4F5001484BF43
:1046C000002001F0004170BD0808A0F500114FEA7C
:1046D0003101704743004FEAD30C4FEA3C0C434092
:1046E0001FBF40070CF1605113F0FE4F70471CF0E4
:1046F000006F03D100200CF0004170470CF0004324
:1047000043EA507010B540EACC0000F0E4F800BF76
:10471000000000924FEA0001FFF7D6BF4FF00041C2
:104720004FF00000A1F50021704700004FF47F0C0E
:104730001CEAD0121EBF1CEAD11392EA0C0F93EAB6
:104740000C0F00F0858090EA010F48BF42F48072A0
:1047500040F4000C41F400002CF07F4120F07F4039
:1047600000B58142A2EB03020FF2081CACEB504EE5
:10477000C0F100009EF800E04FEA4E0E00FB0EFC78
:1047800038BF49004FEA2C1C02F5FA020CFB0EF36D
:104790004FEACE1E4FEA112C4FEAC1210EEB635EA9
:1047A00042EB22420EFB0CFC4FEA1C5300FB0311B0
:1047B0004FEA112C4FEA01310EFB0CFC4FEADC4CA6
:1047C00000FB0C11C14228BF09184CEB03335DF804
:1047D00004EB10EB410143EBC250B2F57C0F38BF44
:1047E000704729D512F0F00F1CBF00F1C04000F057
:1047F00000407047008182838485868788898B8CFE
:104800008D8E8F919293959697999A9C9D9FA0A239
:10481000A3A5A7A8AAACAEB0B2B3B5B7B9BCBEC089
:10482000C2C5C7C9CCCED1D4D7D9DCDFE2E6E9EC2A
:10483000F0F3F7FAFE0000004FEA400C0CF1807C28
:10484000BCF17E4F28BF7047B0F1C04000F089B87E
:1048500090EA010F0CEAD11348BF42F4807262451E
:1048600038BF634507D213F47F0F16D080EA0100EA
:1048700000F00040704710B500F02DF8097EFC3EB6
:1048800000F005B880EA010000F00040704780EABF
:10489000010000F0004000F064B812F47F0F04BF84
:1048A0000248704780EA010000F05BB80000C07F5A
:1048B000B0FA80F310FA03F2C3F19D030AD0D905D0
:1048C00001EB1220530638BF704700F1010008BF0A
:1048D00020F0010070470EF1020E2EF0030E5EF87C
:1048E000044B244204D44FEA4102B2F17F4F11D865
:1048F0004FEA4003B3F17F4F0CD80ED14FEAD07C82
:10490000B2F17F4F0CEB4C0C0CF1020C08BF4CEBDE
:10491000D17C04E04FF0080C01E04FEAD17C0CEBB5
:104920004C0324FA03F404F00704B4F1040C06D297
:104930000EEB840CBDE810404CF0010C6047DFE842
:104940000CF0070802024FF00040A0F5800010BDF7
:104950000846420018BFD2F1807288BF00F00040C4
:1049600010BDFF2141EAD050C0057047FBF71CBEC7
:10497000704A000800000000000000000000000075
:10498000000000000002000018000000000000000D
:1049900000000000644A0008000000000000000061
:1049A00000000000000000000002000008000000FD
:1049B00000000000000000000000000000000000F7
:1049C00001020304060708090000000001020304B5
:1049D00002400000000000A00000000005400000B0
:1049E000000000C8000000000C4000000000409CD7
:1049F00000000000194000000020BCBE00000000C4
:104A000034400000BFC91B8E00000004B540000008
:104A1000504BCFD06607E2CF010000006C41000090
:104A20003E8251AADFEEA73401000000D942000007
:104A3000DCB5A0E23A301F97FFFFFFFFB44500004E
:104A4000FD25A0C8E9A3C14FFFFFFFFFFF3F000006
:104A50000000008000000000FF3F00000000008018
:104A6000000000006D795461736B3032000000006B
:104A700064656661756C745461736B00B84A0008B4
:104A80000000002094000000280100084C4B0008A2
:104A900094000020AC1F0000440100081C0000002E
:104AA00043000000F8FFFFFF0C0000000E000000B4
:104AB0000F0000002E0000000000000000000000B9
:104AC00000000000010000001000000000000000D5
:104AD0000024F400000000000000000000000000BE
:104AE00000000000000000000000000000000000C6
:104AF00000000000000000000000000000000000B6
:104B000000000000000000000000000000000000A5
:104B10000000000000000000000000000000000095
:104B20000000000000000000000000000000000085
:104B30000000000000000000000000000000000075
:0C4B400000000000AAAAAAAA00000000C1
:04000005080000ED02
:00000001FF
